{
    "abi": [
        {
            "type": "receive",
            "stateMutability": "payable"
        },
        {
            "type": "function",
            "name": "DOMAIN_SEPARATOR",
            "inputs": [],
            "outputs": [
                {
                    "name": "result",
                    "type": "bytes32",
                    "internalType": "bytes32"
                }
            ],
            "stateMutability": "view"
        },
        {
            "type": "function",
            "name": "allowance",
            "inputs": [
                {
                    "name": "owner",
                    "type": "address",
                    "internalType": "address"
                },
                {
                    "name": "spender",
                    "type": "address",
                    "internalType": "address"
                }
            ],
            "outputs": [
                {
                    "name": "result",
                    "type": "uint256",
                    "internalType": "uint256"
                }
            ],
            "stateMutability": "view"
        },
        {
            "type": "function",
            "name": "approve",
            "inputs": [
                {
                    "name": "spender",
                    "type": "address",
                    "internalType": "address"
                },
                {
                    "name": "amount",
                    "type": "uint256",
                    "internalType": "uint256"
                }
            ],
            "outputs": [
                {
                    "name": "",
                    "type": "bool",
                    "internalType": "bool"
                }
            ],
            "stateMutability": "nonpayable"
        },
        {
            "type": "function",
            "name": "balanceOf",
            "inputs": [
                {
                    "name": "owner",
                    "type": "address",
                    "internalType": "address"
                }
            ],
            "outputs": [
                {
                    "name": "result",
                    "type": "uint256",
                    "internalType": "uint256"
                }
            ],
            "stateMutability": "view"
        },
        {
            "type": "function",
            "name": "calculateNotionalValue",
            "inputs": [],
            "outputs": [
                {
                    "name": "",
                    "type": "uint256",
                    "internalType": "uint256"
                },
                {
                    "name": "",
                    "type": "uint256",
                    "internalType": "uint256"
                }
            ],
            "stateMutability": "view"
        },
        {
            "type": "function",
            "name": "cancelAllReplace",
            "inputs": [
                {
                    "name": "buyPrices",
                    "type": "uint32[]",
                    "internalType": "uint32[]"
                },
                {
                    "name": "sellPrices",
                    "type": "uint32[]",
                    "internalType": "uint32[]"
                },
                {
                    "name": "buySizes",
                    "type": "uint96[]",
                    "internalType": "uint96[]"
                },
                {
                    "name": "sellSizes",
                    "type": "uint96[]",
                    "internalType": "uint96[]"
                }
            ],
            "outputs": [],
            "stateMutability": "nonpayable"
        },
        {
            "type": "function",
            "name": "cancelOwnershipHandover",
            "inputs": [],
            "outputs": [],
            "stateMutability": "payable"
        },
        {
            "type": "function",
            "name": "completeOwnershipHandover",
            "inputs": [
                {
                    "name": "pendingOwner",
                    "type": "address",
                    "internalType": "address"
                }
            ],
            "outputs": [],
            "stateMutability": "payable"
        },
        {
            "type": "function",
            "name": "crankGas",
            "inputs": [
                {
                    "name": "_baseWithdraw",
                    "type": "uint256",
                    "internalType": "uint256"
                },
                {
                    "name": "_quoteWithdraw",
                    "type": "uint256",
                    "internalType": "uint256"
                }
            ],
            "outputs": [],
            "stateMutability": "nonpayable"
        },
        {
            "type": "function",
            "name": "ctx",
            "inputs": [],
            "outputs": [
                {
                    "name": "book",
                    "type": "address",
                    "internalType": "contract IOrderBook"
                },
                {
                    "name": "pricePrecision",
                    "type": "uint32",
                    "internalType": "uint32"
                },
                {
                    "name": "baseDecimals",
                    "type": "uint8",
                    "internalType": "uint8"
                },
                {
                    "name": "quoteDecimals",
                    "type": "uint8",
                    "internalType": "uint8"
                },
                {
                    "name": "base",
                    "type": "address",
                    "internalType": "address"
                },
                {
                    "name": "sizePrecision",
                    "type": "uint96",
                    "internalType": "uint96"
                },
                {
                    "name": "quote",
                    "type": "address",
                    "internalType": "address"
                },
                {
                    "name": "head",
                    "type": "uint40",
                    "internalType": "uint40"
                },
                {
                    "name": "tail",
                    "type": "uint40",
                    "internalType": "uint40"
                }
            ],
            "stateMutability": "view"
        },
        {
            "type": "function",
            "name": "decimals",
            "inputs": [],
            "outputs": [
                {
                    "name": "",
                    "type": "uint8",
                    "internalType": "uint8"
                }
            ],
            "stateMutability": "view"
        },
        {
            "type": "function",
            "name": "deposit",
            "inputs": [
                {
                    "name": "_baseAmount",
                    "type": "uint256",
                    "internalType": "uint256"
                },
                {
                    "name": "_quoteAmount",
                    "type": "uint256",
                    "internalType": "uint256"
                }
            ],
            "outputs": [
                {
                    "name": "",
                    "type": "uint256",
                    "internalType": "uint256"
                }
            ],
            "stateMutability": "payable"
        },
        {
            "type": "function",
            "name": "depositSingleSide",
            "inputs": [
                {
                    "name": "_totalAmountToPull",
                    "type": "uint256",
                    "internalType": "uint256"
                },
                {
                    "name": "_amountToSwap",
                    "type": "uint256",
                    "internalType": "uint256"
                },
                {
                    "name": "_minOut",
                    "type": "uint256",
                    "internalType": "uint256"
                },
                {
                    "name": "_isBaseAsset",
                    "type": "bool",
                    "internalType": "bool"
                }
            ],
            "outputs": [
                {
                    "name": "",
                    "type": "uint256",
                    "internalType": "uint256"
                }
            ],
            "stateMutability": "payable"
        },
        {
            "type": "function",
            "name": "gasCrank",
            "inputs": [],
            "outputs": [
                {
                    "name": "",
                    "type": "address",
                    "internalType": "address"
                }
            ],
            "stateMutability": "view"
        },
        {
            "type": "function",
            "name": "gasCrankCooldown",
            "inputs": [],
            "outputs": [
                {
                    "name": "",
                    "type": "uint256",
                    "internalType": "uint256"
                }
            ],
            "stateMutability": "view"
        },
        {
            "type": "function",
            "name": "gasFeeOutMax",
            "inputs": [],
            "outputs": [
                {
                    "name": "",
                    "type": "uint256",
                    "internalType": "uint256"
                }
            ],
            "stateMutability": "view"
        },
        {
            "type": "function",
            "name": "getPostedBalances",
            "inputs": [],
            "outputs": [
                {
                    "name": "baseAmountPosted",
                    "type": "uint256",
                    "internalType": "uint256"
                },
                {
                    "name": "quoteAmountPosted",
                    "type": "uint256",
                    "internalType": "uint256"
                }
            ],
            "stateMutability": "view"
        },
        {
            "type": "function",
            "name": "getRestingBalances",
            "inputs": [],
            "outputs": [
                {
                    "name": "baseAmount",
                    "type": "uint256",
                    "internalType": "uint256"
                },
                {
                    "name": "quoteAmount",
                    "type": "uint256",
                    "internalType": "uint256"
                }
            ],
            "stateMutability": "view"
        },
        {
            "type": "function",
            "name": "initialize",
            "inputs": [
                {
                    "name": "_owner",
                    "type": "address",
                    "internalType": "address"
                },
                {
                    "name": "_operator",
                    "type": "address",
                    "internalType": "address"
                },
                {
                    "name": "_gasCrank",
                    "type": "address",
                    "internalType": "address"
                },
                {
                    "name": "_targetMarket",
                    "type": "address",
                    "internalType": "address"
                },
                {
                    "name": "_marginAccount",
                    "type": "address",
                    "internalType": "address"
                },
                {
                    "name": "_unlockInterval",
                    "type": "uint256",
                    "internalType": "uint256"
                },
                {
                    "name": "_gasFeeOutMax",
                    "type": "uint256",
                    "internalType": "uint256"
                },
                {
                    "name": "_gasCrankCooldown",
                    "type": "uint256",
                    "internalType": "uint256"
                }
            ],
            "outputs": [],
            "stateMutability": "nonpayable"
        },
        {
            "type": "function",
            "name": "lastCrankTime",
            "inputs": [],
            "outputs": [
                {
                    "name": "",
                    "type": "uint256",
                    "internalType": "uint256"
                }
            ],
            "stateMutability": "view"
        },
        {
            "type": "function",
            "name": "lastDepositTime",
            "inputs": [
                {
                    "name": "user",
                    "type": "address",
                    "internalType": "address"
                }
            ],
            "outputs": [
                {
                    "name": "timestamp",
                    "type": "uint256",
                    "internalType": "uint256"
                }
            ],
            "stateMutability": "view"
        },
        {
            "type": "function",
            "name": "marginAccount",
            "inputs": [],
            "outputs": [
                {
                    "name": "",
                    "type": "address",
                    "internalType": "contract IMarginAccount"
                }
            ],
            "stateMutability": "view"
        },
        {
            "type": "function",
            "name": "name",
            "inputs": [],
            "outputs": [
                {
                    "name": "",
                    "type": "string",
                    "internalType": "string"
                }
            ],
            "stateMutability": "pure"
        },
        {
            "type": "function",
            "name": "nonces",
            "inputs": [
                {
                    "name": "owner",
                    "type": "address",
                    "internalType": "address"
                }
            ],
            "outputs": [
                {
                    "name": "result",
                    "type": "uint256",
                    "internalType": "uint256"
                }
            ],
            "stateMutability": "view"
        },
        {
            "type": "function",
            "name": "operator",
            "inputs": [],
            "outputs": [
                {
                    "name": "",
                    "type": "address",
                    "internalType": "address"
                }
            ],
            "stateMutability": "view"
        },
        {
            "type": "function",
            "name": "owner",
            "inputs": [],
            "outputs": [
                {
                    "name": "result",
                    "type": "address",
                    "internalType": "address"
                }
            ],
            "stateMutability": "view"
        },
        {
            "type": "function",
            "name": "ownershipHandoverExpiresAt",
            "inputs": [
                {
                    "name": "pendingOwner",
                    "type": "address",
                    "internalType": "address"
                }
            ],
            "outputs": [
                {
                    "name": "result",
                    "type": "uint256",
                    "internalType": "uint256"
                }
            ],
            "stateMutability": "view"
        },
        {
            "type": "function",
            "name": "permit",
            "inputs": [
                {
                    "name": "owner",
                    "type": "address",
                    "internalType": "address"
                },
                {
                    "name": "spender",
                    "type": "address",
                    "internalType": "address"
                },
                {
                    "name": "value",
                    "type": "uint256",
                    "internalType": "uint256"
                },
                {
                    "name": "deadline",
                    "type": "uint256",
                    "internalType": "uint256"
                },
                {
                    "name": "v",
                    "type": "uint8",
                    "internalType": "uint8"
                },
                {
                    "name": "r",
                    "type": "bytes32",
                    "internalType": "bytes32"
                },
                {
                    "name": "s",
                    "type": "bytes32",
                    "internalType": "bytes32"
                }
            ],
            "outputs": [],
            "stateMutability": "nonpayable"
        },
        {
            "type": "function",
            "name": "previewDepositInAmounts",
            "inputs": [
                {
                    "name": "_shares",
                    "type": "uint256",
                    "internalType": "uint256"
                }
            ],
            "outputs": [
                {
                    "name": "",
                    "type": "uint256",
                    "internalType": "uint256"
                },
                {
                    "name": "",
                    "type": "uint256",
                    "internalType": "uint256"
                }
            ],
            "stateMutability": "view"
        },
        {
            "type": "function",
            "name": "previewDepositInShares",
            "inputs": [
                {
                    "name": "_baseAmount",
                    "type": "uint256",
                    "internalType": "uint256"
                },
                {
                    "name": "_quoteAmount",
                    "type": "uint256",
                    "internalType": "uint256"
                }
            ],
            "outputs": [
                {
                    "name": "",
                    "type": "uint256",
                    "internalType": "uint256"
                }
            ],
            "stateMutability": "view"
        },
        {
            "type": "function",
            "name": "previewWithdrawInAmounts",
            "inputs": [
                {
                    "name": "_shares",
                    "type": "uint256",
                    "internalType": "uint256"
                }
            ],
            "outputs": [
                {
                    "name": "",
                    "type": "uint256",
                    "internalType": "uint256"
                },
                {
                    "name": "",
                    "type": "uint256",
                    "internalType": "uint256"
                }
            ],
            "stateMutability": "view"
        },
        {
            "type": "function",
            "name": "previewWithdrawInShares",
            "inputs": [
                {
                    "name": "_baseAmount",
                    "type": "uint256",
                    "internalType": "uint256"
                },
                {
                    "name": "_quoteAmount",
                    "type": "uint256",
                    "internalType": "uint256"
                }
            ],
            "outputs": [
                {
                    "name": "",
                    "type": "uint256",
                    "internalType": "uint256"
                }
            ],
            "stateMutability": "view"
        },
        {
            "type": "function",
            "name": "proxiableUUID",
            "inputs": [],
            "outputs": [
                {
                    "name": "",
                    "type": "bytes32",
                    "internalType": "bytes32"
                }
            ],
            "stateMutability": "view"
        },
        {
            "type": "function",
            "name": "renounceOwnership",
            "inputs": [],
            "outputs": [],
            "stateMutability": "payable"
        },
        {
            "type": "function",
            "name": "requestOwnershipHandover",
            "inputs": [],
            "outputs": [],
            "stateMutability": "payable"
        },
        {
            "type": "function",
            "name": "setGasParams",
            "inputs": [
                {
                    "name": "_gasCrank",
                    "type": "address",
                    "internalType": "address"
                },
                {
                    "name": "_gasFeeOutMax",
                    "type": "uint256",
                    "internalType": "uint256"
                },
                {
                    "name": "_gasCrankCooldown",
                    "type": "uint256",
                    "internalType": "uint256"
                }
            ],
            "outputs": [],
            "stateMutability": "nonpayable"
        },
        {
            "type": "function",
            "name": "setUnlockInterval",
            "inputs": [
                {
                    "name": "_unlockInterval",
                    "type": "uint256",
                    "internalType": "uint256"
                }
            ],
            "outputs": [],
            "stateMutability": "nonpayable"
        },
        {
            "type": "function",
            "name": "symbol",
            "inputs": [],
            "outputs": [
                {
                    "name": "",
                    "type": "string",
                    "internalType": "string"
                }
            ],
            "stateMutability": "pure"
        },
        {
            "type": "function",
            "name": "totalSupply",
            "inputs": [],
            "outputs": [
                {
                    "name": "result",
                    "type": "uint256",
                    "internalType": "uint256"
                }
            ],
            "stateMutability": "view"
        },
        {
            "type": "function",
            "name": "transfer",
            "inputs": [
                {
                    "name": "to",
                    "type": "address",
                    "internalType": "address"
                },
                {
                    "name": "amount",
                    "type": "uint256",
                    "internalType": "uint256"
                }
            ],
            "outputs": [
                {
                    "name": "",
                    "type": "bool",
                    "internalType": "bool"
                }
            ],
            "stateMutability": "nonpayable"
        },
        {
            "type": "function",
            "name": "transferFrom",
            "inputs": [
                {
                    "name": "from",
                    "type": "address",
                    "internalType": "address"
                },
                {
                    "name": "to",
                    "type": "address",
                    "internalType": "address"
                },
                {
                    "name": "amount",
                    "type": "uint256",
                    "internalType": "uint256"
                }
            ],
            "outputs": [
                {
                    "name": "",
                    "type": "bool",
                    "internalType": "bool"
                }
            ],
            "stateMutability": "nonpayable"
        },
        {
            "type": "function",
            "name": "transferOwnership",
            "inputs": [
                {
                    "name": "newOwner",
                    "type": "address",
                    "internalType": "address"
                }
            ],
            "outputs": [],
            "stateMutability": "payable"
        },
        {
            "type": "function",
            "name": "unlockInterval",
            "inputs": [],
            "outputs": [
                {
                    "name": "",
                    "type": "uint256",
                    "internalType": "uint256"
                }
            ],
            "stateMutability": "view"
        },
        {
            "type": "function",
            "name": "upgradeToAndCall",
            "inputs": [
                {
                    "name": "newImplementation",
                    "type": "address",
                    "internalType": "address"
                },
                {
                    "name": "data",
                    "type": "bytes",
                    "internalType": "bytes"
                }
            ],
            "outputs": [],
            "stateMutability": "payable"
        },
        {
            "type": "function",
            "name": "withdraw",
            "inputs": [
                {
                    "name": "_shares",
                    "type": "uint256",
                    "internalType": "uint256"
                }
            ],
            "outputs": [
                {
                    "name": "",
                    "type": "uint256",
                    "internalType": "uint256"
                },
                {
                    "name": "",
                    "type": "uint256",
                    "internalType": "uint256"
                }
            ],
            "stateMutability": "nonpayable"
        },
        {
            "type": "function",
            "name": "withdrawSingleSide",
            "inputs": [
                {
                    "name": "_shares",
                    "type": "uint256",
                    "internalType": "uint256"
                },
                {
                    "name": "_isBaseForSwap",
                    "type": "bool",
                    "internalType": "bool"
                },
                {
                    "name": "_minOut",
                    "type": "uint256",
                    "internalType": "uint256"
                }
            ],
            "outputs": [
                {
                    "name": "",
                    "type": "uint256",
                    "internalType": "uint256"
                },
                {
                    "name": "",
                    "type": "uint256",
                    "internalType": "uint256"
                }
            ],
            "stateMutability": "nonpayable"
        },
        {
            "type": "event",
            "name": "ActiveVaultDeposit",
            "inputs": [
                {
                    "name": "user",
                    "type": "address",
                    "indexed": false,
                    "internalType": "address"
                },
                {
                    "name": "baseAmount",
                    "type": "uint256",
                    "indexed": false,
                    "internalType": "uint256"
                },
                {
                    "name": "quoteAmount",
                    "type": "uint256",
                    "indexed": false,
                    "internalType": "uint256"
                },
                {
                    "name": "sharesMinted",
                    "type": "uint256",
                    "indexed": false,
                    "internalType": "uint256"
                }
            ],
            "anonymous": false
        },
        {
            "type": "event",
            "name": "ActiveVaultWithdraw",
            "inputs": [
                {
                    "name": "user",
                    "type": "address",
                    "indexed": false,
                    "internalType": "address"
                },
                {
                    "name": "baseAmount",
                    "type": "uint256",
                    "indexed": false,
                    "internalType": "uint256"
                },
                {
                    "name": "quoteAmount",
                    "type": "uint256",
                    "indexed": false,
                    "internalType": "uint256"
                },
                {
                    "name": "sharesBurned",
                    "type": "uint256",
                    "indexed": false,
                    "internalType": "uint256"
                }
            ],
            "anonymous": false
        },
        {
            "type": "event",
            "name": "Approval",
            "inputs": [
                {
                    "name": "owner",
                    "type": "address",
                    "indexed": true,
                    "internalType": "address"
                },
                {
                    "name": "spender",
                    "type": "address",
                    "indexed": true,
                    "internalType": "address"
                },
                {
                    "name": "amount",
                    "type": "uint256",
                    "indexed": false,
                    "internalType": "uint256"
                }
            ],
            "anonymous": false
        },
        {
            "type": "event",
            "name": "Deposit",
            "inputs": [
                {
                    "name": "user",
                    "type": "address",
                    "indexed": true,
                    "internalType": "address"
                },
                {
                    "name": "baseAmount",
                    "type": "uint256",
                    "indexed": false,
                    "internalType": "uint256"
                },
                {
                    "name": "quoteAmount",
                    "type": "uint256",
                    "indexed": false,
                    "internalType": "uint256"
                },
                {
                    "name": "sharesMinted",
                    "type": "uint256",
                    "indexed": false,
                    "internalType": "uint256"
                }
            ],
            "anonymous": false
        },
        {
            "type": "event",
            "name": "GasCrankWithdraw",
            "inputs": [
                {
                    "name": "gasCrank",
                    "type": "address",
                    "indexed": false,
                    "internalType": "address"
                },
                {
                    "name": "baseAmount",
                    "type": "uint256",
                    "indexed": false,
                    "internalType": "uint256"
                },
                {
                    "name": "quoteAmount",
                    "type": "uint256",
                    "indexed": false,
                    "internalType": "uint256"
                }
            ],
            "anonymous": false
        },
        {
            "type": "event",
            "name": "Initialized",
            "inputs": [
                {
                    "name": "version",
                    "type": "uint64",
                    "indexed": false,
                    "internalType": "uint64"
                }
            ],
            "anonymous": false
        },
        {
            "type": "event",
            "name": "OwnershipHandoverCanceled",
            "inputs": [
                {
                    "name": "pendingOwner",
                    "type": "address",
                    "indexed": true,
                    "internalType": "address"
                }
            ],
            "anonymous": false
        },
        {
            "type": "event",
            "name": "OwnershipHandoverRequested",
            "inputs": [
                {
                    "name": "pendingOwner",
                    "type": "address",
                    "indexed": true,
                    "internalType": "address"
                }
            ],
            "anonymous": false
        },
        {
            "type": "event",
            "name": "OwnershipTransferred",
            "inputs": [
                {
                    "name": "oldOwner",
                    "type": "address",
                    "indexed": true,
                    "internalType": "address"
                },
                {
                    "name": "newOwner",
                    "type": "address",
                    "indexed": true,
                    "internalType": "address"
                }
            ],
            "anonymous": false
        },
        {
            "type": "event",
            "name": "Transfer",
            "inputs": [
                {
                    "name": "from",
                    "type": "address",
                    "indexed": true,
                    "internalType": "address"
                },
                {
                    "name": "to",
                    "type": "address",
                    "indexed": true,
                    "internalType": "address"
                },
                {
                    "name": "amount",
                    "type": "uint256",
                    "indexed": false,
                    "internalType": "uint256"
                }
            ],
            "anonymous": false
        },
        {
            "type": "event",
            "name": "Upgraded",
            "inputs": [
                {
                    "name": "implementation",
                    "type": "address",
                    "indexed": true,
                    "internalType": "address"
                }
            ],
            "anonymous": false
        },
        {
            "type": "event",
            "name": "Withdraw",
            "inputs": [
                {
                    "name": "user",
                    "type": "address",
                    "indexed": true,
                    "internalType": "address"
                },
                {
                    "name": "baseAmount",
                    "type": "uint256",
                    "indexed": false,
                    "internalType": "uint256"
                },
                {
                    "name": "quoteAmount",
                    "type": "uint256",
                    "indexed": false,
                    "internalType": "uint256"
                },
                {
                    "name": "sharesBurned",
                    "type": "uint256",
                    "indexed": false,
                    "internalType": "uint256"
                }
            ],
            "anonymous": false
        },
        {
            "type": "error",
            "name": "AllowanceOverflow",
            "inputs": []
        },
        {
            "type": "error",
            "name": "AllowanceUnderflow",
            "inputs": []
        },
        {
            "type": "error",
            "name": "AlreadyInitialized",
            "inputs": []
        },
        {
            "type": "error",
            "name": "GasCrankCooldown",
            "inputs": []
        },
        {
            "type": "error",
            "name": "GasCrankWithdrawExceedsMax",
            "inputs": []
        },
        {
            "type": "error",
            "name": "InsufficientAllowance",
            "inputs": []
        },
        {
            "type": "error",
            "name": "InsufficientBalance",
            "inputs": []
        },
        {
            "type": "error",
            "name": "InvalidInitialization",
            "inputs": []
        },
        {
            "type": "error",
            "name": "InvalidInput",
            "inputs": []
        },
        {
            "type": "error",
            "name": "InvalidLength",
            "inputs": []
        },
        {
            "type": "error",
            "name": "InvalidPermit",
            "inputs": []
        },
        {
            "type": "error",
            "name": "Locked",
            "inputs": []
        },
        {
            "type": "error",
            "name": "NativeAssetInsufficient",
            "inputs": []
        },
        {
            "type": "error",
            "name": "NativeAssetMismatch",
            "inputs": []
        },
        {
            "type": "error",
            "name": "NewOwnerIsZeroAddress",
            "inputs": []
        },
        {
            "type": "error",
            "name": "NoHandoverRequest",
            "inputs": []
        },
        {
            "type": "error",
            "name": "NotInitializing",
            "inputs": []
        },
        {
            "type": "error",
            "name": "Permit2AllowanceIsFixedAtInfinity",
            "inputs": []
        },
        {
            "type": "error",
            "name": "PermitExpired",
            "inputs": []
        },
        {
            "type": "error",
            "name": "Reentrancy",
            "inputs": []
        },
        {
            "type": "error",
            "name": "SharesBurnedZero",
            "inputs": []
        },
        {
            "type": "error",
            "name": "SharesMintedZero",
            "inputs": []
        },
        {
            "type": "error",
            "name": "TotalSupplyOverflow",
            "inputs": []
        },
        {
            "type": "error",
            "name": "Uint96Overflow",
            "inputs": []
        },
        {
            "type": "error",
            "name": "Unauthorized",
            "inputs": []
        },
        {
            "type": "error",
            "name": "UnauthorizedCallContext",
            "inputs": []
        },
        {
            "type": "error",
            "name": "UpgradeFailed",
            "inputs": []
        },
        {
            "type": "error",
            "name": "WithdrawSwapMinOutNotMet",
            "inputs": []
        },
        {
            "type": "error",
            "name": "WithdrawalExceedsRestingBalance",
            "inputs": []
        }
    ],
    "bytecode": {
        "object": "0x60a0604052346100305761001161003f565b610019610035565b6168596101c18239608051816166ab015261685990f35b61003b565b60405190565b5f80fd5b610047610049565b565b610051610053565b565b61005b61005d565b565b610065610067565b565b61006f610071565b565b6100796100e8565b565b60018060a01b031690565b90565b61009d6100986100a29261007b565b610086565b61007b565b90565b6100ae90610089565b90565b6100ba906100a5565b90565b6100c690610089565b90565b90565b6100e06100db6100e59261007b565b610086565b6100c9565b90565b6100f061010e565b6101096101046100ff306100b1565b6100bd565b6100cc565b608052565b61011661014a565b565b90565b90565b5f1b90565b61013761013261013c92610118565b61011e565b61011b565b90565b1561014657565b5f80fd5b6101766101556101ac565b61016f6101696101645f610123565b61011b565b9161011b565b141561013f565b565b5f90565b90565b61019361018e6101989261017c565b61011e565b61011b565b90565b6101a963409feecd1961017f565b90565b6101b4610178565b506101bd61019b565b9056fe60c06040526004361015610015575b3661173457005b61001f5f356102fe565b806302527753146102f95780630516c55b146102f457806306fdde03146102ef578063095ea7b3146102ea57806318160ddd146102e55780631c26e621146102e057806321729db3146102db57806323b872dd146102d657806325692962146102d1578063277838df146102cc5780632e1a7d4d146102c75780633098f459146102c2578063313ce567146102bd578063322f1b35146102b8578063343054cd146102b3578063362a1f57146102ae5780633644e515146102a957806349476574146102a45780634e7e156e1461029f5780634f1ef2861461029a57806352d1902d1461029557806354d1f13d1461029057806354f9137a1461028b578063570ca735146102865780636463ffd114610281578063699f706e1461027c57806370a0823114610277578063715018a6146102725780637403c6cd1461026d5780637ecebe00146102685780638340582b146102635780638a69f5f21461025e5780638da5cb5b14610259578063905221a41461025457806395d89b411461024f578063a9059cbb1461024a578063d505accf14610245578063dd62ed3e14610240578063e04d89da1461023b578063e2bbb15814610236578063f04e283e14610231578063f0c175a31461022c578063f2fde38b14610227578063f742269d14610222578063fae5df6a1461021d5763fee81cf40361000e576116ff565b6116c9565b611694565b6115fd565b6115c9565b6115a0565b611574565b61153e565b611508565b6114a1565b6113b5565b611380565b61134b565b611307565b6112d1565b6112a2565b611227565b6111ea565b611140565b61110b565b6110d5565b611098565b610f36565b610ef0565b610e6a565b610e35565b610e0b565b610d45565b610d01565b610c82565b610c28565b610be4565b610ba3565b610b6e565b610b23565b610aed565b610aae565b6107a9565b610773565b610705565b610690565b61062e565b6105f8565b61056f565b6104bf565b610426565b60e01c90565b60405190565b5f80fd5b5f80fd5b5f80fd5b60018060a01b031690565b61032a90610316565b90565b61033681610321565b0361033d57565b5f80fd5b9050359061034e8261032d565b565b9060208282031261036957610366915f01610341565b90565b61030e565b90565b61038561038061038a92610316565b61036e565b610316565b90565b61039690610371565b90565b6103a29061038d565b90565b906103af90610399565b5f5260205260405f2090565b1c90565b90565b6103d29060086103d793026103bb565b6103bf565b90565b906103e591546103c2565b90565b6103fe906103f96001915f926103a5565b6103da565b90565b90565b61040d90610401565b9052565b9190610424905f60208501940190610404565b565b346104565761045261044161043c366004610350565b6103e8565b610449610304565b91829182610411565b0390f35b61030a565b61046481610401565b0361046b57565b5f80fd5b9050359061047c8261045b565b565b9060208282031261049757610494915f0161046f565b90565b61030e565b9160206104bd9294936104b660408201965f830190610404565b0190610404565b565b346104f0576104d76104d236600461047e565b61173c565b906104ec6104e3610304565b9283928361049c565b0390f35b61030a565b5f9103126104ff57565b61030e565b5190565b60209181520190565b90825f9392825e0152565b601f801991011690565b61054561054e6020936105539361053c81610504565b93848093610508565b95869101610511565b61051c565b0190565b61056c9160208201915f818403910152610526565b90565b3461059f5761057f3660046104f5565b61059b61058a61184f565b610592610304565b91829182610557565b0390f35b61030a565b91906040838203126105cc57806105c06105c9925f8601610341565b9360200161046f565b90565b61030e565b151590565b6105df906105d1565b9052565b91906105f6905f602085019401906105d6565b565b346106295761062561061461060e3660046105a4565b90611867565b61061c610304565b918291826105e3565b0390f35b61030a565b3461065e5761063e3660046104f5565b61065a6106496118f2565b610651610304565b91829182610411565b0390f35b61030a565b919060408382031261068b578061067f610688925f860161046f565b9360200161046f565b90565b61030e565b346106c1576106bd6106ac6106a6366004610663565b90611909565b6106b4610304565b91829182610411565b0390f35b61030a565b90916060828403126106fb576106f86106e1845f8501610341565b936106ef816020860161046f565b9360400161046f565b90565b61030e565b5f0190565b346107345761071e6107183660046106c6565b91611ab0565b610726610304565b8061073081610700565b0390f35b61030a565b909160608284031261076e5761076b610754845f8501610341565b936107628160208601610341565b9360400161046f565b90565b61030e565b346107a4576107a061078f610789366004610739565b91611b17565b610797610304565b918291826105e3565b0390f35b61030a565b6107b43660046104f5565b6107bc611bc0565b6107c4610304565b806107ce81610700565b0390f35b5f1c90565b60018060a01b031690565b6107ee6107f3916107d2565b6107d7565b90565b61080090546107e2565b90565b60a01c90565b63ffffffff1690565b61081e61082391610803565b610809565b90565b6108309054610812565b90565b60c01c90565b60ff1690565b61084b61085091610833565b610839565b90565b61085d905461083f565b90565b60c81c90565b61087261087791610860565b610839565b90565b6108849054610866565b90565b60018060a01b031690565b61089e6108a3916107d2565b610887565b90565b6108b09054610892565b90565b6bffffffffffffffffffffffff1690565b6108d06108d591610803565b6108b3565b90565b6108e290546108c4565b90565b64ffffffffff1690565b6108fb61090091610803565b6108e5565b90565b61090d90546108ef565b90565b61091c61092191610860565b6108e5565b90565b61092e9054610910565b90565b600261093e5f82016107f6565b9161094a5f8301610826565b916109565f8201610853565b916109625f830161087a565b9161096f600182016108a6565b9161097c600183016108d8565b91610989600282016108a6565b916109a1600261099a818501610903565b9301610924565b90565b6109ad9061038d565b90565b6109b9906109a4565b9052565b63ffffffff1690565b6109cf906109bd565b9052565b60ff1690565b6109e2906109d3565b9052565b6109ef90610321565b9052565b6bffffffffffffffffffffffff1690565b610a0d906109f3565b9052565b64ffffffffff1690565b610a2490610a11565b9052565b9694929099989795939161012088019a5f8901610a44916109b0565b60208801610a51916109c6565b60408701610a5e916109d9565b60608601610a6b916109d9565b60808501610a78916109e6565b60a08401610a8591610a04565b60c08301610a92916109e6565b60e08201610a9f91610a1b565b61010001610aac91610a1b565b565b34610ae857610abe3660046104f5565b610ae4610ac9610931565b95610adb999799959195949294610304565b998a998a610a28565b0390f35b61030a565b34610b1e57610b05610b0036600461047e565b611f36565b90610b1a610b11610304565b9283928361049c565b0390f35b61030a565b34610b5457610b3b610b3636600461047e565b611f54565b90610b50610b47610304565b9283928361049c565b0390f35b61030a565b9190610b6c905f602085019401906109d9565b565b34610b9e57610b7e3660046104f5565b610b9a610b89611fad565b610b91610304565b91829182610b59565b0390f35b61030a565b34610bd157610bbb610bb636600461047e565b611fe2565b610bc3610304565b80610bcd81610700565b0390f35b61030a565b610be15f5f906103da565b90565b34610c1457610bf43660046104f5565b610c10610bff610bd6565b610c07610304565b91829182610411565b0390f35b61030a565b610c2560095f906103da565b90565b34610c5857610c383660046104f5565b610c54610c43610c19565b610c4b610304565b91829182610411565b0390f35b61030a565b90565b610c6990610c5d565b9052565b9190610c80905f60208501940190610c60565b565b34610cb257610c923660046104f5565b610cae610c9d61201a565b610ca5610304565b91829182610c6d565b0390f35b61030a565b610cc7906008610ccc93026103bb565b610887565b90565b90610cda9154610cb7565b90565b610ce960065f90610ccf565b90565b9190610cff905f602085019401906109e6565b565b34610d3157610d113660046104f5565b610d2d610d1c610cdd565b610d24610304565b91829182610cec565b0390f35b61030a565b610d4260085f906103da565b90565b34610d7557610d553660046104f5565b610d71610d60610d36565b610d68610304565b91829182610411565b0390f35b61030a565b5f80fd5b5f80fd5b5f80fd5b909182601f83011215610dc05781359167ffffffffffffffff8311610dbb576020019260018302840111610db657565b610d82565b610d7e565b610d7a565b919091604081840312610e0657610dde835f8301610341565b92602082013567ffffffffffffffff8111610e0157610dfd9201610d86565b9091565b610312565b61030e565b610e1f610e19366004610dc5565b9161218d565b610e27610304565b80610e3181610700565b0390f35b34610e6557610e453660046104f5565b610e61610e50612205565b610e58610304565b91829182610c6d565b0390f35b61030a565b610e753660046104f5565b610e7d612218565b610e85610304565b80610e8f81610700565b0390f35b610e9c816105d1565b03610ea357565b5f80fd5b90503590610eb482610e93565b565b9091606082840312610eeb57610ee8610ed1845f850161046f565b93610edf8160208601610ea7565b9360400161046f565b90565b61030e565b34610f2257610f09610f03366004610eb6565b91612cd1565b90610f1e610f15610304565b9283928361049c565b0390f35b61030a565b610f3360055f90610ccf565b90565b34610f6657610f463660046104f5565b610f62610f51610f27565b610f59610304565b91829182610cec565b0390f35b61030a565b909182601f83011215610fa55781359167ffffffffffffffff8311610fa0576020019260208302840111610f9b57565b610d82565b610d7e565b610d7a565b909182601f83011215610fe45781359167ffffffffffffffff8311610fdf576020019260208302840111610fda57565b610d82565b610d7e565b610d7a565b9091608082840312611093575f82013567ffffffffffffffff811161108e5783611014918401610f6b565b929093602082013567ffffffffffffffff81116110895781611037918401610f6b565b929093604082013567ffffffffffffffff8111611084578361105a918401610faa565b929093606082013567ffffffffffffffff811161107f5761107b9201610faa565b9091565b610312565b610312565b610312565b610312565b61030e565b346110d0576110ba6110ab366004610fe9565b969590959491949392936133b2565b6110c2610304565b806110cc81610700565b0390f35b61030a565b34611106576110e53660046104f5565b6110ed6138d5565b906111026110f9610304565b9283928361049c565b0390f35b61030a565b3461113b57611137611126611121366004610350565b613994565b61112e610304565b91829182610411565b0390f35b61030a565b61114b3660046104f5565b6111536139d5565b61115b610304565b8061116581610700565b0390f35b9190610100838203126111e557611182815f8501610341565b926111908260208301610341565b9261119e8360408401610341565b926111ac8160608501610341565b926111ba8260808301610341565b926111e26111cb8460a0850161046f565b936111d98160c0860161046f565b9360e00161046f565b90565b61030e565b346112225761120c6111fd366004611169565b96959095949194939293613ec6565b611214610304565b8061121e81610700565b0390f35b61030a565b346112575761125361124261123d366004610350565b613ed8565b61124a610304565b91829182610411565b0390f35b61030a565b60808183031261129d57611272825f830161046f565b9261129a611283846020850161046f565b93611291816040860161046f565b93606001610ea7565b90565b61030e565b6112cd6112bc6112b336600461125c565b92919091614559565b6112c4610304565b91829182610411565b0390f35b34611302576112e13660046104f5565b6112e9614570565b906112fe6112f5610304565b9283928361049c565b0390f35b61030a565b34611337576113173660046104f5565b6113336113226145ae565b61132a610304565b91829182610cec565b0390f35b61030a565b61134860075f906103da565b90565b3461137b5761135b3660046104f5565b61137761136661133c565b61136e610304565b91829182610411565b0390f35b61030a565b346113b0576113903660046104f5565b6113ac61139b61460c565b6113a3610304565b91829182610557565b0390f35b61030a565b346113e6576113e26113d16113cb3660046105a4565b90614620565b6113d9610304565b918291826105e3565b0390f35b61030a565b6113f4816109d3565b036113fb57565b5f80fd5b9050359061140c826113eb565b565b61141781610c5d565b0361141e57565b5f80fd5b9050359061142f8261140e565b565b60e08183031261149c57611447825f8301610341565b926114558360208401610341565b92611463816040850161046f565b92611471826060830161046f565b9261149961148284608085016113ff565b936114908160a08601611422565b9360c001611422565b90565b61030e565b346114d6576114c06114b4366004611431565b9594909493919361468f565b6114c8610304565b806114d281610700565b0390f35b61030a565b919060408382031261150357806114f7611500925f8601610341565b93602001610341565b90565b61030e565b346115395761153561152461151e3660046114db565b9061487e565b61152c610304565b91829182610411565b0390f35b61030a565b3461156f5761154e3660046104f5565b6115566148f4565b9061156b611562610304565b9283928361049c565b0390f35b61030a565b61159c61158b611585366004610663565b90614c41565b611593610304565b91829182610411565b0390f35b6115b36115ae366004610350565b614c9c565b6115bb610304565b806115c581610700565b0390f35b346115f8576115e26115dc366004610663565b90614cd9565b6115ea610304565b806115f481610700565b0390f35b61030a565b61161061160b366004610350565b614e81565b611618610304565b8061162281610700565b0390f35b60018060a01b031690565b61164190600861164693026103bb565b611626565b90565b906116549154611631565b90565b611663600a5f90611649565b90565b61166f9061038d565b90565b61167b90611666565b9052565b9190611692905f60208501940190611672565b565b346116c4576116a43660046104f5565b6116c06116af611657565b6116b7610304565b9182918261167f565b0390f35b61030a565b346116fa576116f66116e56116df366004610663565b90614e8c565b6116ed610304565b91829182610411565b0390f35b61030a565b3461172f5761172b61171a611715366004610350565b614eb2565b611722610304565b91829182610411565b0390f35b61030a565b5f80fd5b5f90565b61176d90611748611738565b50611751611738565b5061175a614570565b6117626118f2565b919091600193614ece565b91909190565b606090565b634e487b7160e01b5f52604160045260245ffd5b906117969061051c565b810190811067ffffffffffffffff8211176117b057604052565b611778565b906117c86117c1610304565b928361178c565b565b67ffffffffffffffff81116117e8576117e460209161051c565b0190565b611778565b906117ff6117fa836117ca565b6117b5565b918252565b5f7f4b757275205661756c7400000000000000000000000000000000000000000000910152565b611835600a6117ed565b9061184260208301611804565b565b61184c61182b565b90565b611857611773565b50611860611844565b90565b5f90565b61186f611863565b50611878614f03565b6118c5575b602052637f5e9f20600c52335f52806034600c20555f52602c5160601c337f8c5be1e5ebec7d5bd14f71427d1e84f3dd0314c0f7b2291e5b200ac8c7c3b92560205fa3600190565b8119156e22d473030f116ddee9f6b43ac78ba38260601b60601c181761187d57633f68539a5f526004601cfd5b6118fa611738565b506805345cdf77eb68f44c5490565b9061192c91611916611738565b5061191f614570565b9290929192909192614f11565b505090565b90611944929161193f615021565b611a25565b565b90565b61195d61195861196292611946565b61036e565b610316565b90565b61196e90611949565b90565b5f1b90565b9061198760018060a01b0391611971565b9181191691161790565b90565b906119a96119a46119b092610399565b611991565b8254611976565b9055565b6119c86119c36119cd92611946565b61036e565b610401565b90565b906119dc5f1991611971565b9181191691161790565b6119fa6119f56119ff92610401565b61036e565b610401565b90565b90565b90611a1a611a15611a21926119e6565b611a02565b82546119d0565b9055565b80611a40611a3a611a355f611965565b610321565b91610321565b03611a9f575b5080611a5a611a545f6119b4565b91610401565b03611a8e575b5080611a74611a6e5f6119b4565b91610401565b03611a7d575b50565b611a88906008611a05565b5f611a7a565b611a99906007611a05565b5f611a60565b611aaa906006611994565b5f611a46565b90611abb9291611931565b565b611ac9611ace916107d2565b6103bf565b90565b611adb9054611abd565b90565b634e487b7160e01b5f52601160045260245ffd5b611b01611b0791939293610401565b92610401565b8201809211611b1257565b611ade565b91611b20611863565b50611b47611b38611b33600186906103a5565b611ad1565b611b415f611ad1565b90611af2565b611b59611b5342610401565b91610401565b11611b6d57611b6a9291909161503d565b90565b5f6303cb96db60e21b815280611b8560048201610700565b0390fd5b67ffffffffffffffff1690565b611baa611ba5611baf92611b89565b61036e565b610401565b90565b90611bbd9101610401565b90565b611bda42611bd4611bcf6151f7565b611b96565b90611bb2565b63389a75e1600c52335f526020600c2055337fdbf36a107da19e49527a7176a1babf963b4b0ff8cde35ee35d6cd8f1f9ac7e1d5f80a2565b90565b611c29611c24611c2e92611c12565b61036e565b610401565b90565b611c43688000000000ab143c06611c15565b90565b90565b611c5d611c58611c6292611c46565b61036e565b610401565b90565b929190611c7061520f565b5f14611d2857611c7e611c31565b9346611c93611c8d6001611c49565b91610401565b145f14611d0a57845c611d0157611caf939430905d5b5b611de0565b9091611cb961520f565b5f14611cf057611cc7611c31565b46611cdb611cd56001611c49565b91610401565b145f14611ce9575f905d5b5b565b8055611ce6565b5f688000000000ab143c065d611ce7565b845f526004601cfd5b30855414611d1f57611caf9394309055611ca9565b845f526004601cfd5b688000000000ab143c069392935c611d4f57611caf9230688000000000ab143c065d611caa565b63ab143c065f526004601cfd5b15611d6357565b5f630638288b60e31b815280611d7b60048201610700565b0390fd5b15611d8657565b5f6303cb96db60e21b815280611d9e60048201610700565b0390fd5b611dd7611dde94611dcd606094989795611dc3608086019a5f8701906109e6565b6020850190610404565b6040830190610404565b0190610404565b565b9291925050611e0182611dfb611df55f6119b4565b91610401565b11611d5c565b611e42611e2a611e1b611e16600133906103a5565b611ad1565b611e245f611ad1565b90611af2565b611e3c611e3642610401565b91610401565b10611d7f565b611e4a6148f4565b92909290611e80611e596138d5565b908391611e78611e71611e6a6118f2565b938a611af2565b9187611af2565b915f93614ece565b92909294611e97611e918592610401565b91610401565b11908115611f1a575b50611efe57611eb033829061521d565b611ebc82853391615292565b338290611ef786937f0f026689e85a8d17644dcfde4a809a89d61d408ce737d1f1e9bdca05fbed20da94611eee610304565b94859485611da2565b0390a19190565b5f63503ae32b60e11b815280611f1660048201610700565b0390fd5b9050611f2f611f298692610401565b91610401565b115f611ea0565b611f5090611f42611738565b611f4a611738565b90611c65565b9091565b611f8490611f60611738565b50611f69611738565b50611f72614570565b611f7a6118f2565b9190915f93614ece565b91909190565b5f90565b90565b611fa5611fa0611faa92611f8e565b61036e565b6109d3565b90565b611fb5611f8a565b50611fc06012611f91565b90565b611fd490611fcf615021565b611fd6565b565b611fe0905f611a05565b565b611feb90611fc3565b565b5f90565b61200561200061200a92611946565b611971565b610c5d565b90565b90565b60200190565b5190565b612022611fed565b5061202b6152dd565b8061204661204061203b5f611ff1565b610c5d565b91610c5d565b14612098575b60a090612057615333565b604051917f8b73c3c69bb8fe3d512ecc4cf759cc79239f7b179b0ffacaa9a75d522b39400f8352602083015260408201524660608201523060808201522090565b5060a06120ab6120a661184f565b61200d565b6120bd6120b782612016565b91612010565b20905061204c565b906120d892916120d3615347565b6120da565b565b9190916120e68161535a565b60601b60601c3d5f526352d1902d6001527f360894a13ba1a3210667c828492db98dca3e2076cc3735a920a3ca505d382bbc80602060016004601d865afa510361217f57818391817fbc7cd75a20ee27fd9adebab32041f755214dbc6bffa90cc0225b39da2e5c2d3b5f38a25561215d575b505050565b815f926040519485378338925af415612177578080612158565b3d5f823e3d90fd5b6355299b496001526004601dfd5b9061219892916120c5565b565b6121ab906121a6615365565b6121f9565b90565b90565b6121c56121c06121ca926121ae565b611971565b610c5d565b90565b6121f67f360894a13ba1a3210667c828492db98dca3e2076cc3735a920a3ca505d382bbc6121b1565b90565b506122026121cd565b90565b612215612210611fed565b61219a565b90565b63389a75e1600c52335f525f6020600c2055337ffa7b8eab7da67f412cc9575ed43464468f9bfbae89d1675917346ca6d8fe3c925f80a2565b949392919061225e61520f565b5f146123165761226c611c31565b954661228161227b6001611c49565b91610401565b145f146122f857865c6122ef5761229d959630905d5b5b61267b565b90916122a761520f565b5f146122de576122b5611c31565b466122c96122c36001611c49565b91610401565b145f146122d7575f905d5b5b565b80556122d4565b5f688000000000ab143c065d6122d5565b865f526004601cfd5b3087541461230d5761229d9596309055612297565b865f526004601cfd5b688000000000ab143c069594955c61233d5761229d9430688000000000ab143c065d612298565b63ab143c065f526004601cfd5b61235390610321565b90565b906123609061234a565b9052565b9061236e906109bd565b9052565b9061237c906109d3565b9052565b9061238a90610321565b9052565b90612398906109f3565b9052565b906123a690610a11565b9052565b6123b56101206117b5565b90565b9061249361248960026123c96123aa565b946123e06123d85f83016107f6565b5f8801612356565b6123f76123ee5f8301610826565b60208801612364565b61240e6124055f8301610853565b60408801612372565b61242561241c5f830161087a565b60608801612372565b61243d612434600183016108a6565b60808801612380565b61245561244c600183016108d8565b60a0880161238e565b61246c6124638383016108a6565b60c08801612380565b61248361247a838301610903565b60e0880161239c565b01610924565b610100840161239c565b565b61249e906123b8565b90565b6124ab9051610321565b90565b6124b8905161234a565b90565b6124c590516109bd565b90565b6124dc6124d76124e1926109bd565b61036e565b610401565b90565b6124f36124f991939293610401565b92610401565b91612505838202610401565b92818404149015171561251457565b611ade565b61252390516109d3565b90565b61252f906109d3565b604d811161253d57600a0a90565b611ade565b634e487b7160e01b5f52601260045260245ffd5b61256261256891610401565b91610401565b908115612573570490565b612542565b5f80fd5b60e01b90565b9050519061258f8261045b565b565b906020828203126125aa576125a7915f01612582565b90565b61030e565b6125b8906119b4565b9052565b6125f16125f8946125e76060949897956125dd608086019a5f870190610a04565b60208501906125af565b60408301906105d6565b01906105d6565b565b612602610304565b3d5f823e3d90fd5b61261490516109f3565b90565b61262b612626612630926109f3565b61036e565b610401565b90565b61264261264891939293610401565b92610401565b820391821161265357565b611ade565b1561265f57565b5f63178dff1560e31b81528061267760048201610700565b0390fd5b949394505061269c816126966126905f6119b4565b91610401565b11611d5c565b6126dd6126c56126b66126b1600133906103a5565b611ad1565b6126bf5f611ad1565b90611af2565b6126d76126d142610401565b91610401565b10611d7f565b6126e76002612495565b936126ff6126f7608087016124a1565b600190615381565b9461271761270f60c083016124a1565b600190615381565b906127206148f4565b97909795612758896127306138d5565b9190916127506127498b946127436118f2565b94611af2565b918c611af2565b915f93614ece565b9790979961276f6127698a92610401565b91610401565b11908115612cb5575b50612c995761278833879061521d565b61279e87612798608086016124a1565b9061548f565b6127b4896127ae60c086016124a1565b9061548f565b6127bc611738565b815f14612c22576127cf608085016124a1565b6127e96127e36127de5f611965565b610321565b91610321565b145f14612bf45750865b5b815f14612b135760208861281161280c5f88016124ae565b6109a4565b9261288061286261285d6128438a61283d61283860a063532c46db989b989b99930161260a565b612617565b906124e4565b61285761285260408d01612519565b612526565b90612556565b6155b5565b925f9561288b5f600190612874610304565b998a988997889661257c565b8652600486016125bc565b03925af18015612b0e576129359361291e9261290292612ae2575b505b8380612ab4575b5f14612a36576128e66128c4608088016124a1565b6128d76128d25f8a016124ae565b6109a4565b6128e05f6119b4565b91615520565b5b6128fd6128f6608088016124a1565b5f90615381565b612633565b9461291961291260c087016124a1565b5f90615381565b612633565b948180612a1b575b9182156129e3575b5050612658565b816129486129425f6119b4565b91610401565b116129c7575b8261296161295b5f6119b4565b91610401565b116129a9575b506129a2339192937f0f026689e85a8d17644dcfde4a809a89d61d408ce737d1f1e9bdca05fbed20da94612999610304565b94859485611da2565b0390a19190565b6129c1906129ba60c08592016124a1565b33916155e7565b5f612967565b6129de826129d7608084016124a1565b33916155e7565b61294e565b6129ef919250156105d1565b90816129fe575b505f8061292e565b9050612a13612a0d8592610401565b91610401565b10155f6129f6565b5085612a2f612a2983610401565b91610401565b1015612926565b612a4084156105d1565b80612a86575b612a50575b6128e7565b612a81612a5f60c088016124a1565b612a72612a6d5f8a016124ae565b6109a4565b612a7b5f6119b4565b91615520565b612a4b565b50612a9360c087016124a1565b612aad612aa7612aa25f611965565b610321565b91610321565b1415612a46565b50612ac1608087016124a1565b612adb612ad5612ad05f611965565b610321565b91610321565b14156128af565b612b029060203d8111612b07575b612afa818361178c565b810190612591565b6128a6565b503d612af0565b6125fa565b60208a612b29612b245f88016124ae565b6109a4565b92612b97612b79612b74612b5a8a612b54612b4f89637c51d6cf989b989b9993016124bb565b6124c8565b906124e4565b612b6e612b6960608d01612519565b612526565b90612556565b6155b5565b925f95612ba25f600190612b8b610304565b998a988997889661257c565b8652600486016125bc565b03925af18015612bef576129359361291e9261290292612bc3575b506128a8565b612be39060203d8111612be8575b612bdb818361178c565b810190612591565b612bbd565b503d612bd1565b6125fa565b612c1d612c03608086016124a1565b612c16612c115f88016124ae565b6109a4565b8a91615520565b6127f3565b612c2c82156105d1565b612c36575b6127f4565b612c4260c085016124a1565b612c5c612c56612c515f611965565b610321565b91610321565b145f14612c6b5750885b612c31565b612c94612c7a60c086016124a1565b612c8d612c885f88016124ae565b6109a4565b8c91615520565b612c66565b5f63503ae32b60e11b815280612cb160048201610700565b0390fd5b9050612cca612cc48b92610401565b91610401565b115f612778565b90612ced9291612cdf611738565b612ce7611738565b90612251565b9091565b5090565b5090565b612d039051610a11565b90565b612d1a612d15612d1f92611946565b61036e565b610a11565b90565b612d2e612d3491610a11565b91610a11565b90039064ffffffffff8211612d4557565b611ade565b612d5e612d59612d6392611c46565b61036e565b610a11565b90565b612d72612d7891610a11565b91610a11565b019064ffffffffff8211612d8857565b611ade565b612da1612d9c612da692610a11565b61036e565b610401565b90565b67ffffffffffffffff8111612dc15760208091020190565b611778565b90612dd8612dd383612da9565b6117b5565b918252565b369037565b90612e07612def83612dc6565b92602080612dfd8693612da9565b9201910390612ddd565b565b612e1290610a11565b64ffffffffff8114612e245760010190565b611ade565b634e487b7160e01b5f52603260045260245ffd5b5190565b90612e4b82612e3d565b811015612e5c576020809102010190565b612e29565b67ffffffffffffffff8111612e795760208091020190565b611778565b90612e90612e8b83612e61565b6117b5565b918252565b369037565b90612ebf612ea783612e7e565b92602080612eb58693612e61565b9201910390612e95565b565b67ffffffffffffffff8111612ed95760208091020190565b611778565b90612ef0612eeb83612ec1565b6117b5565b918252565b369037565b90612f1f612f0783612ede565b92602080612f158693612ec1565b9201910390612ef5565b565b5f910312612f2b57565b61030e565b5190565b60209181520190565b60200190565b612f4c906109bd565b9052565b90612f5d81602093612f43565b0190565b60200190565b90612f84612f7e612f7784612f30565b8093612f34565b92612f3d565b905f5b818110612f945750505090565b909192612fad612fa76001928651612f50565b94612f61565b9101919091612f87565b5190565b60209181520190565b60200190565b612fd3906109f3565b9052565b90612fe481602093612fca565b0190565b60200190565b9061300b613005612ffe84612fb7565b8093612fbb565b92612fc4565b905f5b81811061301b5750505090565b90919261303461302e6001928651612fd7565b94612fe8565b910191909161300e565b60209181520190565b60200190565b61305690610a11565b9052565b906130678160209361304d565b0190565b60200190565b9061308e61308861308184612e3d565b809361303e565b92613047565b905f5b81811061309e5750505090565b9091926130b76130b1600192865161305a565b9461306b565b9101919091613091565b96959361311a9061310c60a0956130fe613128966130ef8d6131309c9860c08201915f818403910152612f67565b908d6020818403910152612fee565b908b820360408d0152612f67565b9089820360608b0152612fee565b908782036080890152613071565b9401906105d6565b565b60a01b90565b9061314b64ffffffffff60a01b91613132565b9181191691161790565b61316961316461316e92610a11565b61036e565b610a11565b90565b90565b9061318961318461319092613155565b613171565b8254613138565b9055565b60c81b90565b906131ad64ffffffffff60c81b91613194565b9181191691161790565b906131cc6131c76131d392613155565b613171565b825461319a565b9055565b6131e081610a11565b036131e757565b5f80fd5b905051906131f8826131d7565b565b9060208282031261321357613210915f016131eb565b90565b61030e565b90565b613224816109bd565b0361322b57565b5f80fd5b9050359061323c8261321b565b565b5061324d90602081019061322f565b90565b60200190565b916132648261326a92612f34565b92613218565b90815f905b82821061327d575050505090565b9091929361329f613299600192613294888661323e565b612f50565b95613250565b92019092919261326f565b90565b6132b6816109f3565b036132bd57565b5f80fd5b905035906132ce826132ad565b565b506132df9060208101906132c1565b90565b60200190565b916132f6826132fc92612fbb565b926132aa565b90815f905b82821061330f575050505090565b9091929361333161332b60019261332688866132d0565b612fd7565b956132e2565b920190929192613301565b9a999791946133a89661337d8d61339a9760a09b9761336f6133b09f9b9761338c9860c08601918683035f880152613256565b9260208185039101526132e8565b918d6040818503910152613256565b918a830360608c01526132e8565b908782036080890152613071565b9401906105d6565b565b91969392966133bf6156a7565b6133ca838390612cf1565b6133e66133e06133db878a90612cf5565b610401565b91610401565b141580156138a6575b61388a576133fd6002612495565b9761340a60e08a01612cf9565b61341c6134165f612d06565b91610a11565b036136cd575b61342d848490612cf1565b61343f6134395f6119b4565b91610401565b1180156136a9575b5f146136715761347b60206134656134605f8d016124ae565b6109a4565b632bf1360e90613473610304565b93849261257c565b8252815f8161348c60048201610700565b03925af190811561366c575f9161363e575b50976134b36134ae5f8c016124ae565b6109a4565b96635339c59f9594969893929190916134d36134ce5f6119b4565b612de2565b936001958a3b15613639576134e6610304565b9b8c9a6134f38c9b61257c565b8b5260048b01996135039a61333c565b03815a5f948591f1908161360d575b50155f146135565750506001613527575b5b5b565b61353c6135335f612d06565b60028001613174565b6135516135485f612d06565b600280016131b7565b613523565b602061356e6135695f61358495016124ae565b6109a4565b632bf1360e9061357c610304565b94859261257c565b8252815f8161359560048201610700565b03925af18015613608576135c36135cc916135d5945f916135da575b50926135bd6001612d4a565b90612d66565b60028001613174565b600280016131b7565b613524565b6135fb915060203d8111613601575b6135f3818361178c565b8101906131fa565b5f6135b1565b503d6135e9565b6125fa565b61362c905f3d8111613632575b613624818361178c565b810190612f21565b5f613512565b503d61361a565b612578565b61365f915060203d8111613665575b613657818361178c565b8101906131fa565b5f61349e565b503d61364d565b6125fa565b50505050505050505061368f6136865f612d06565b60028001613174565b6136a461369b5f612d06565b600280016131b7565b613525565b506136b5828290612cf1565b6136c76136c15f6119b4565b91610401565b11613447565b989695949392919061371b6137166137116137018c6136fb60e06136f46101008401612cf9565b9201612cf9565b90612d22565b61370b6001612d4a565b90612d66565b612d8d565b612de2565b9961372860e08b01612cf9565b60a0525b8961374e61374861374361010060a0519401612cf9565b610a11565b91610a11565b1161379e5761378b8b6137868c61378061377b60a051949261377560e060a0519201612cf9565b90612d22565b612d8d565b90612e41565b61239c565b61379660a051612e09565b60a05261372c565b9091929394959697996137ba6137b55f8c016124ae565b6109a4565b90635339c59f916137d26137cd5f6119b4565b612e9a565b906137e46137df5f6119b4565b612efa565b936137f66137f15f6119b4565b612e9a565b936138086138035f6119b4565b612efa565b9091600195843b15613885575f9661383494889461383f93613828610304565b9b8c9a8b998a9861257c565b8852600488016130c1565b03925af1801561388057613854575b50613422565b613873905f3d8111613879575b61386b818361178c565b810190612f21565b5f61384e565b503d613861565b6125fa565b612578565b5f63251f56a160e21b8152806138a260048201610700565b0390fd5b506138b2818990612cf1565b6138ce6138c86138c38a8990612cf5565b610401565b91610401565b14156133ef565b6138dd611738565b6138e5611738565b906138f260028001610903565b916138ff60028001610924565b8361391261390c5f612d06565b91610a11565b146139785792905b8161392d61392786610a11565b91610a11565b116139725761393b826157e0565b5f1461395c576139569161394f9190611af2565b915b612e09565b9061391a565b61395691929361396c9190611af2565b92613951565b92505091565b505050505f9061399161398b5f936119b4565b926119b4565b90565b61399c611738565b506387a211a2600c525f526020600c205490565b6139b8615021565b6139c06139c2565b565b6139d36139ce5f611965565b615aca565b565b6139dd6139b0565b565b95939196949290966139ef615b82565b9687548060038a55613a4a575b50908798613a0e979695949392613ba0565b613a16575b50565b6002905560016020527fc7f505b2f371ae2175ee4913f4499e1f2633a7b5936321eed1cdaeb6115181d2602080a15f613a13565b9695949392919097600188811c14303b1015613a7557613a0e9760ff1b1b97909192939495966139fc565b63f92ee8a95f526004601cfd5b15613a8957565b5f63b4fa3fb360e01b815280613aa160048201610700565b0390fd5b90565b613abc613ab7613ac192613aa5565b61036e565b610401565b90565b613acd90610371565b90565b613ad990613ac4565b90565b613ae590613ac4565b90565b90565b90613b00613afb613b0792613adc565b613ae8565b8254611976565b9055565b613b1490610371565b90565b613b2090613b0b565b90565b613b2c9061038d565b90565b613b3b613b40916107d2565b611626565b90565b613b4d9054613b2f565b90565b90505190613b5d82610e93565b565b90602082820312613b7857613b75915f01613b50565b90565b61030e565b916020613b9e929493613b9760408201965f8301906109e6565b0190610404565b565b613cce9291613cc0613cd39695613cbb613cc794613cfa9c9b613cda9b60805260a052613be885613be1613bdb613bd65f611965565b610321565b91610321565b1415613a82565b613c0d87613c06613c00613bfb5f611965565b610321565b91610321565b1415613a82565b613c3283613c2b613c25613c205f611965565b610321565b91610321565b1415613a82565b613c5789613c50613c4a613c455f611965565b610321565b91610321565b1415613a82565b613c75608051613c6f613c695f6119b4565b91610401565b11613a82565b60a051613c8a613c845f6119b4565b91610401565b1180613ea2575b613c9a90613a82565b613cb68c613cb0613caa5f6119b4565b91610401565b11613a82565b615b96565b615e94565b6005611994565b6006611994565b613ad0565b600a613aeb565b613ce66080515f611a05565b613cf360a0516007611a05565b6008611a05565b613d0760016002016108a6565b613d21613d1b613d165f611965565b610321565b91610321565b03613dfb575b613d33600280016108a6565b613d4d613d47613d425f611965565b610321565b91610321565b03613d55575b565b613d71613d6c613d67600280016108a6565b613b17565b613b23565b602063095ea7b391613d8b613d86600a613b43565b611666565b90613daa5f801995613db5613d9e610304565b9788968795869461257c565b845260048401613b7d565b03925af18015613df657613dca575b50613d53565b613dea9060203d8111613def575b613de2818361178c565b810190613b5f565b613dc4565b503d613dd8565b6125fa565b613e18613e13613e0e60016002016108a6565b613b17565b613b23565b602063095ea7b391613e32613e2d600a613b43565b611666565b90613e515f801995613e5c613e45610304565b9788968795869461257c565b845260048401613b7d565b03925af18015613e9d57613e71575b50613d27565b613e919060203d8111613e96575b613e89818361178c565b810190613b5f565b613e6b565b503d613e7f565b6125fa565b50613c9a60a051613ebd613eb7612710613aa8565b91610401565b11159050613c91565b90613ed6979695949392916139df565b565b613ee0611738565b506338377508600c525f526020600c205490565b9493929190613f0161520f565b5f14613fb857613f0f611c31565b9546613f24613f1e6001611c49565b91610401565b145f14613f9a57865c613f9157613f40959630905d5b5b61407c565b90613f4961520f565b5f14613f8057613f57611c31565b46613f6b613f656001611c49565b91610401565b145f14613f79575f905d5b5b565b8055613f76565b5f688000000000ab143c065d613f77565b865f526004601cfd5b30875414613faf57613f409596309055613f3a565b865f526004601cfd5b688000000000ab143c069594955c613fdf57613f409430688000000000ab143c065d613f3b565b63ab143c065f526004601cfd5b15613ff357565b5f63fd99316160e01b81528061400b60048201610700565b0390fd5b6140189061038d565b90565b6140506140579461404660609498979561403c608086019a5f870190610a04565b6020850190610404565b60408301906105d6565b01906105d6565b565b1561406057565b5f63149196c760e21b81528061407860048201610700565b0390fd5b93909293508161409461408e5f6119b4565b91610401565b118061453a575b6140a490613a82565b6140ae6002612495565b9160206140c86140c0608086016124a1565b600190615381565b956140e06140d860c087016124a1565b600190615381565b95845f14614529576140f4608087016124a1565b5b946140fe611738565b918661411a61411461410f5f611965565b610321565b91610321565b14155f1461450357614139908790336141323061400f565b9192615fc9565b6141578661415061414b5f8b016124ae565b6109a4565b8791615520565b5b5f14614432576141df61417461416f5f89016124ae565b6109a4565b946141c26141bd6141a38a61419d61419860a063532c46db999c999c97930161260a565b612617565b906124e4565b6141b76141b260408d01612519565b612526565b90612556565b6155b5565b93956141ea5f6001906141d3610304565b998a988997889661257c565b86526004860161401b565b03925af1801561442d57614401575b505b8061421661421061420b5f611965565b610321565b91610321565b036143d5575b5061436161434561428161422e614570565b614236611738565b50614257614250614249608089016124a1565b5f90615381565b8990612633565b61427761427061426960c08a016124a1565b5f90615381565b8990612633565b9092909192614f11565b9691966142a08861429a6142945f6119b4565b91610401565b11614059565b6142ab338990616028565b6142c0426142bb600133906103a5565b611a05565b6142d6826142d0608089016124a1565b906160cd565b6142ec816142e660c089016124a1565b906160cd565b33919091614327897ff7ed121cfb40d57714b8349a1791bb3d55e16464fe62844d8ab562e6680527279461431e610304565b94859485611da2565b0390a1614340614339608086016124a1565b5f90615381565b612633565b9261435c61435560c085016124a1565b5f90615381565b612633565b918061437561436f5f6119b4565b91610401565b116143b8575b508161438f6143895f6119b4565b91610401565b1161439a575b505090565b6143aa60c06143b19392016124a1565b33916155e7565b5f80614395565b6143cf906143c8608084016124a1565b33916155e7565b5f61437b565b6143fb906143ec6143e75f85016124ae565b6109a4565b6143f55f6119b4565b91615520565b5f61421c565b6144219060203d8111614426575b614419818361178c565b810190612591565b6141f9565b503d61440f565b6125fa565b6144b26144486144435f89016124ae565b6109a4565b946144956144906144768a61447061446b8a637c51d6cf999c999c9793016124bb565b6124c8565b906124e4565b61448a61448560608d01612519565b612526565b90612556565b6155b5565b93956144bd5f6001906144a6610304565b998a988997889661257c565b86526004860161401b565b03925af180156144fe576144d2575b506141fb565b6144f29060203d81116144f7575b6144ea818361178c565b810190612591565b6144cc565b503d6144e0565b6125fa565b61452291925061451c6145163492610401565b91610401565b14613fec565b8390614158565b61453560c087016124a1565b6140f5565b506140a48361455161454b85610401565b91610401565b11905061409b565b9061456d939291614568611738565b613ef4565b90565b6145a79061457c611738565b50614585611738565b5061458e6148f4565b92906145a161459b6138d5565b92611af2565b93611af2565b90565b5f90565b6145b66145aa565b50638b78c6d8195490565b5f7f4b5552552d5641554c5400000000000000000000000000000000000000000000910152565b6145f2600a6117ed565b906145ff602083016145c1565b565b6146096145e8565b90565b614614611773565b5061461d614601565b90565b90614629611863565b5061465061464161463c600133906103a5565b611ad1565b61464a5f611ad1565b90611af2565b61466261465c42610401565b91610401565b11614673576146709161622a565b90565b5f6303cb96db60e21b81528061468b60048201610700565b0390fd5b9594909391929461469e614f03565b61483e575b6146ab6152dd565b91826146c76146c16146bc5f611ff1565b610c5d565b91610c5d565b14614813575b6146d5615333565b93874211614806576040519860601b60601c9660601b60601c9765383775081901600e52875f526020600c20958654957f8b73c3c69bb8fe3d512ecc4cf759cc79239f7b179b0ffacaa9a75d522b39400f8c5260208c015260408b01524660608b01523060808b015260a08a20602e527f6e71edae12b1b97f4d1f60370fef10105fa2faae0126114a169c64845d6126c98a528760208b01528860408b01528660608b01528460808b015260a08a015260c08920604e526042602c205f5260ff1660205260405260605260208060805f60015afa90843d51036147f95701905582637f5e9f2060a01b176040526034602c20557f8c5be1e5ebec7d5bd14f71427d1e84f3dd0314c0f7b2291e5b200ac8c7c3b925602060608501a36040525f606052565b63ddafbaef5f526004601cfd5b631a15a3cc5f526004601cfd5b915061482561482061184f565b61200d565b61483761483182612016565b91612010565b20916146cd565b8319156e22d473030f116ddee9f6b43ac78ba38660601b60601c18176146a357633f68539a5f526004601cfd5b6e22d473030f116ddee9f6b43ac78ba390565b90614887611738565b50614890614f03565b6148ab575b602052637f5e9f20600c525f526034600c205490565b806148c56148bf6148ba61486b565b610321565b91610321565b036148955750505f1990565b9160206148f29294936148eb60408201965f8301906109e6565b01906109e6565b565b6148fc611738565b50614905611738565b50614918614913600a613b43565b611666565b602063d4fac45d916149293061400f565b9061495261493a60016002016108a6565b9461495d614946610304565b9687958694859461257c565b8452600484016148d1565b03915afa908115614a3e575f91614a10575b509061498361497e600a613b43565b611666565b602063d4fac45d916149943061400f565b906149bc6149a4600280016108a6565b946149c76149b0610304565b9687958694859461257c565b8452600484016148d1565b03915afa908115614a0b575f916149dd575b5090565b6149fe915060203d8111614a04575b6149f6818361178c565b810190612591565b5f6149d9565b503d6149ec565b6125fa565b614a31915060203d8111614a37575b614a29818361178c565b810190612591565b5f61496f565b503d614a1f565b6125fa565b929190614a4e61520f565b5f14614b0557614a5c611c31565b9346614a71614a6b6001611c49565b91610401565b145f14614ae757845c614ade57614a8d939430905d5b5b614b5c565b90614a9661520f565b5f14614acd57614aa4611c31565b46614ab8614ab26001611c49565b91610401565b145f14614ac6575f905d5b5b565b8055614ac3565b5f688000000000ab143c065d614ac4565b845f526004601cfd5b30855414614afc57614a8d9394309055614a87565b845f526004601cfd5b688000000000ab143c069392935c614b2c57614a8d9230688000000000ab143c065d614a88565b63ab143c065f526004601cfd5b15614b4057565b5f63cd41a9e360e01b815280614b5860048201610700565b0390fd5b90614be9929150614b7060016002016108a6565b614b8a614b84614b7f5f611965565b610321565b91610321565b148015614c14575b5f14614bf857614be434614ba960016002016108a6565b614bc3614bbd614bb85f611965565b610321565b91610321565b145f14614bec57614bdd614bd7845b610401565b91610401565b145b614b39565b61629f565b90565b614bdd614bd785614bd2565b614be434614c0e614c085f6119b4565b91610401565b14614bdf565b50614c21600280016108a6565b614c3b614c35614c305f611965565b610321565b91610321565b14614b92565b90614c5391614c4e611738565b614a43565b90565b614c6790614c62615021565b614c69565b565b63389a75e1600c52805f526020600c209081544211614c8f575f614c8d9255615aca565b565b636f5e88185f526004601cfd5b614ca590614c56565b565b604090614cd0614cd79496959396614cc660608401985f8501906109e6565b6020830190610404565b0190610404565b565b90614ce261648e565b42614d11614d0b614d06614cf66009611ad1565b614d006008611ad1565b90611af2565b610401565b91610401565b10614e3157614d3c614d6f614d5e614d4d614d2a614570565b9490614d366007611ad1565b906124e4565b614d47612710613aa8565b90612556565b92614d586007611ad1565b906124e4565b614d69612710613aa8565b90612556565b90614d83614d7d8592610401565b91610401565b11908115614e15575b50614df957614d9c426009611a05565b614db18282614dab60066108a6565b91615292565b614dbb60066108a6565b919091614df47f57a22e4f573fdde147e5da0d963e82b64839e457916475bb99cc5884b9b338cf93614deb610304565b93849384614ca7565b0390a1565b5f6313b2e2c560e11b815280614e1160048201610700565b0390fd5b9050614e2a614e248392610401565b91610401565b115f614d8c565b5f6309766eeb60e41b815280614e4960048201610700565b0390fd5b614e5e90614e59615021565b614e60565b565b8060601b15614e7457614e7290615aca565b565b637448fbae5f526004601cfd5b614e8a90614e4d565b565b90614eaf91614e99611738565b50614ea2614570565b92909291929091926164b5565b90565b614eba611738565b5063389a75e1600c525f526020600c205490565b9493909192614ef6614f0094614ee2611738565b50614eeb611738565b50879085859261652a565b959290919261652a565b90565b614f0b611863565b50600190565b92909391614f1d611738565b50614f26611738565b50614f2f611738565b50614f386118f2565b90614f47858388905f926165c1565b90614f5f614f59828587905f926165c1565b83616657565b83614f72614f6c5f6119b4565b91610401565b146150135780614f8a614f8485610401565b91610401565b145f14614fd0575050614fc89291614fb8614fad614fc29383869060019261652a565b978790835f926165c1565b9287915f926165c1565b90616657565b919291929190565b61500b9493919796506150059250614ff0614ffb9183899060019261652a565b968790835f926165c1565b9287915f926165c1565b90616657565b919291929190565b935095505050919291929190565b638b78c6d81954330361503057565b6382b429005f526004601cfd5b919091615048611863565b50615051614f03565b5f146151245760601b916e22d473030f116ddee9f6b43ac78ba333036150e1575b6387a211a28317600c526020600c2080548084116150d45783900390555f526020600c20818154019055602052600c5160601c9060601c7fddf252ad1be2c89b69c2b068fc378daa952ba7f163c4a11628f55a4df523b3ef602080a35b600190565b63f4d678b85f526004601cfd5b33602052637f5e9f208317600c526034600c2080548019615104575b5050615072565b8084116151175783900390555f806150fd565b6313be252b5f526004601cfd5b60601b9133602052637f5e9f208317600c526034600c20805480196151b4575b50506387a211a28317600c526020600c2080548084116151a75783900390555f526020600c20818154019055602052600c5160601c9060601c7fddf252ad1be2c89b69c2b068fc378daa952ba7f163c4a11628f55a4df523b3ef602080a36150cf565b63f4d678b85f526004601cfd5b8084116151c75783900390555f80615144565b6313be252b5f526004601cfd5b5f90565b90565b6151ef6151ea6151f4926151d8565b61036e565b611b89565b90565b6151ff6151d4565b5061520c6202a3006151db565b90565b615217611863565b50600190565b6387a211a2600c52805f526020600c209182549283821161528557815f94039055806805345cdf77eb68f44c54036805345cdf77eb68f44c55825260601b60601c7fddf252ad1be2c89b69c2b068fc378daa952ba7f163c4a11628f55a4df523b3ef602083a3565b63f4d678b85f526004601cfd5b90916152db926152d36152a860016002016108a6565b6152b4600280016108a6565b946152c081839061548f565b6152cb84879061548f565b9084916155e7565b9190916155e7565b565b6152e5611fed565b90565b90565b6152ff6152fa615304926152e8565b611971565b610c5d565b90565b6153307fc89efdaa54c0f20c7adf612882df0950f5a951637e0307cdcb4c672f298b8bc66152eb565b90565b61533b611fed565b50615344615307565b90565b61534f6166a0565b61535557565b6166f0565b50615363615021565b565b6153766153706166a0565b156105d1565b61537c57565b6166f0565b9061538a611738565b50816153a66153a061539b5f611965565b610321565b91610321565b1461543d575060206153c26153bd6153f493613b17565b613b23565b6370a08231906153e96153d43061400f565b926153dd610304565b9586948593849361257c565b835260048301610cec565b03915afa908115615438575f9161540a575b5090565b61542b915060203d8111615431575b615423818361178c565b810190612591565b5f615406565b503d615419565b6125fa565b61545b915061544b3061400f565b31905f1461545e57345b90612633565b90565b6154675f6119b4565b615455565b91602061548d92949361548660408201965f830190610404565b01906109e6565b565b6154a161549c600a613b43565b611666565b9162f714ce919092803b1561551b576154cd5f80946154d86154c1610304565b9788968795869461257c565b84526004840161546c565b03925af18015615516576154ea575b50565b615509905f3d811161550f575b615501818361178c565b810190612f21565b5f6154e7565b503d6154f7565b6125fa565b612578565b919060145260345263095ea7b360601b5f5260205f6044601082855af1908160015f51141615615553575b50505f603452565b3d903b15171015615565575f8061554b565b633e3f8f735f526004601cfd5b5f90565b61558a61558561558f92610401565b61036e565b6109f3565b90565b1561559957565b5f637119f00960e11b8152806155b160048201610700565b0390fd5b906155be615572565b506155e56155cb83615576565b926155df6155d98592610401565b91612617565b14615592565b565b919091826156056155ff6155fa5f611965565b610321565b91610321565b14615618576156169291909161671b565b565b9061562392506166fd565b565b5f7f5661756c743a206e6f74206f70657261746f7200000000000000000000000000910152565b6156596013602092610508565b61566281615625565b0190565b61567b9060208101905f81830391015261564c565b90565b1561568557565b61568d610304565b62461bcd60e51b8152806156a360048201615666565b0390fd5b6156cc336156c66156c06156bb60056108a6565b610321565b91610321565b1461567e565b565b905051906156db8261032d565b565b905051906156ea826132ad565b565b905051906156f98261321b565b565b91906101008382031261577757615714815f85016156ce565b9261572282602083016156dd565b9261573083604084016131eb565b9261573e81606085016131eb565b9261574c82608083016131eb565b9261577461575d8460a085016156ec565b9361576b8160c086016156ec565b9360e001613b50565b90565b61030e565b919061578f905f60208501940190610a1b565b565b91906040838203126157b957806157ad6157b6925f86016131eb565b936020016131eb565b90565b61030e565b6157c7906124c8565b9052565b91906157de905f602085019401906157be565b565b906157e9611738565b506157f2611863565b5061583761010061580d6158085f6002016107f6565b6109a4565b631c0d9c229061582c8692615820610304565b9586948593849361257c565b83526004830161577c565b03915afa908115615ac5575f8080808080808097959650509692505050615a8d575b50919093845f146159f0576158a7604061587d6158785f6002016107f6565b6109a4565b63e6d29b519061589c8692615890610304565b9586948593849361257c565b8352600483016157cb565b03915afa80156159eb576158d3916158cd915f809290916159ba575b5090505b92610a11565b91610a11565b116159ab576158e0611738565b50835f146159615761592861590d61595c93615907615901615942956124c8565b91612617565b906124e4565b61592261591d60016002016108d8565b612617565b90612556565b61593c6159375f60020161087a565b612526565b906124e4565b6159566159515f600201610826565b6124c8565b90612556565b5b9190565b5061598b6159716159a692612617565b6159856159805f600201610853565b612526565b906124e4565b6159a061599b60016002016108d8565b612617565b90612556565b61595d565b50506159b65f6119b4565b9190565b90506159dd915060403d81116159e4575b6159d5818361178c565b810190615791565b905f6158c3565b503d6159cb565b6125fa565b615a336040615a09615a045f6002016107f6565b6109a4565b630e2e2ffe90615a288692615a1c610304565b9586948593849361257c565b8352600483016157cb565b03915afa8015615a88576158d3916158cd915f80929091615a57575b5090506158c7565b9050615a7a915060403d8111615a81575b615a72818361178c565b810190615791565b905f615a4f565b503d615a68565b6125fa565b915050615ab291506101003d8111615abe575b615aaa818361178c565b8101906156fb565b95945050945050615859565b503d615aa0565b6125fa565b615ad261676d565b5f14615b1757638b78c6d8199060601b60601c8082547f8be0079c531659141344cd1fd0a4f28419497f9722a3daafe3b4186f6b6457e05f80a3801560ff1b1790555b565b638b78c6d8199060601b60601c908181547f8be0079c531659141344cd1fd0a4f28419497f9722a3daafe3b4186f6b6457e05f80a355615b15565b90565b615b69615b64615b6e92615b52565b611971565b610c5d565b90565b615b7f63409feecd19615b55565b90565b615b8a611fed565b50615b93615b71565b90565b615b9e61676d565b5f14615bf657638b78c6d819908154615be95760601b60601c90811560ff1b821790555f7f8be0079c531659141344cd1fd0a4f28419497f9722a3daafe3b4186f6b6457e08180a35b565b630dc149f05f526004601cfd5b60601b60601c80638b78c6d819555f7f8be0079c531659141344cd1fd0a4f28419497f9722a3daafe3b4186f6b6457e08180a3615be7565b615c3790610371565b90565b615c4390615c2e565b90565b615c4f90615c2e565b90565b90565b90615c6a615c65615c7192615c46565b615c52565b8254611976565b9055565b919061016083820312615d1e57615c8e815f85016156ec565b92615c9c82602083016156dd565b92615caa83604084016156ce565b92615cb88160608501612582565b92615cc682608083016156ce565b92615cd48360a08401612582565b92615ce28160c085016156ec565b92615cf08260e083016156dd565b92615d1b615d028461010085016156dd565b93615d11816101208601612582565b9361014001612582565b90565b61030e565b90615d3563ffffffff60a01b91613132565b9181191691161790565b615d53615d4e615d58926109bd565b61036e565b6109bd565b90565b90565b90615d73615d6e615d7a92615d3f565b615d5b565b8254615d23565b9055565b90615d986bffffffffffffffffffffffff60a01b91613132565b9181191691161790565b615db6615db1615dbb926109f3565b61036e565b6109f3565b90565b90565b90615dd6615dd1615ddd92615da2565b615dbe565b8254615d7e565b9055565b615df5615df0615dfa92610401565b61036e565b6109d3565b90565b60c01b90565b90615e1260ff60c01b91615dfd565b9181191691161790565b615e30615e2b615e35926109d3565b61036e565b6109d3565b90565b90565b90615e50615e4b615e5792615e1c565b615e38565b8254615e03565b9055565b90615e6a60ff60c81b91613194565b9181191691161790565b90615e89615e84615e9092615e1c565b615e38565b8254615e5b565b9055565b615ea0615ea991615c3a565b5f600201615c55565b615ed9610160615ec3615ebe5f6002016107f6565b6109a4565b6390c9427c90615ed1610304565b93849261257c565b82528180615ee960048201610700565b03915afa8015615fc457615f6e91615f65915f808080808094909395929192615f70575b615f60959650615f4e92615f3f615f579593615f35615f49949a919395989a5f600201615d5e565b6001600201615dc1565b6001600201611994565b615de1565b5f600201615e3b565b60028001611994565b615de1565b5f600201615e74565b565b505050505050615f60615f49615f57615f4e615f35615fa9615f3f966101603d8111615fbd575b615fa1818361178c565b810190615c75565b505050505098509650945092509550615f0d565b503d615f97565b6125fa565b916040519360605260405260601b602c526323b872dd60601b600c5260205f6064601c82855af1908160015f51141615616009575b50505f606052604052565b3d903b1517101561601b575f80615ffe565b637939f4245f526004601cfd5b6805345cdf77eb68f44c5482810190811061608e576805345cdf77eb68f44c556387a211a2600c525f526020600c20818154019055602052600c5160601c5f7fddf252ad1be2c89b69c2b068fc378daa952ba7f163c4a11628f55a4df523b3ef602080a3565b63e5cfe9575f526004601cfd5b6040906160c46160cb94969593966160ba60608401985f8501906109e6565b60208301906109e6565b0190610404565b565b90806160e96160e36160de5f611965565b610321565b91610321565b1461618b576161006160fb600a613b43565b611666565b90638340f549916161103061400f565b919392813b15616186575f61613891616143829661612c610304565b9889978896879561257c565b85526004850161609b565b03925af1801561618157616155575b50565b616174905f3d811161617a575b61616c818361178c565b810190612f21565b5f616152565b503d616162565b6125fa565b612578565b61619d616198600a613b43565b611666565b90638340f549839290926161b03061400f565b929490823b15616225575f946161e26161d7936161cb610304565b9889978896879561257c565b85526004850161609b565b03925af18015616220576161f4575b50565b616213905f3d8111616219575b61620b818361178c565b810190612f21565b5f6161f1565b503d616201565b6125fa565b612578565b616232611863565b506387a211a2600c52335f526020600c2080548084116162925783900390555f526020600c20818154019055602052600c5160601c337fddf252ad1be2c89b69c2b068fc378daa952ba7f163c4a11628f55a4df523b3ef602080a3600190565b63f4d678b85f526004601cfd5b906162cb916162ac611738565b506162b5614570565b929092916162c1611738565b5092909192614f11565b6162e7836162e16162db5f6119b4565b91610401565b11614059565b6162f2338490616028565b61630742616302600133906103a5565b611a05565b61630f611738565b61631c60016002016108a6565b61633661633061632b5f611965565b610321565b91610321565b145f146163ca5750616349348390612633565b5b61635583839061677b565b806163686163625f6119b4565b91610401565b116163b0575b50339190916163aa847ff7ed121cfb40d57714b8349a1791bb3d55e16464fe62844d8ab562e668052727946163a1610304565b94859485611da2565b0390a190565b6163c4906163bd5f611965565b33916155e7565b5f61636e565b6163d6600280016108a6565b6163f06163ea6163e55f611965565b610321565b91610321565b146163fb575b61634a565b50616407348290612633565b6163f6565b5f7f5661756c743a206e6f7420676173206372616e6b000000000000000000000000910152565b6164406014602092610508565b6164498161640c565b0190565b6164629060208101905f818303910152616433565b90565b1561646c57565b616474610304565b62461bcd60e51b81528061648a6004820161644d565b0390fd5b6164b3336164ad6164a76164a260066108a6565b610321565b91610321565b14616465565b565b6164ec936164dc6164e6936164c8611738565b506164d16118f2565b9390846001926165c1565b93916001926165c1565b90616657565b90565b6164f890610401565b5f1981146165065760010190565b611ade565b90565b61652261651d6165279261650b565b61036e565b610401565b90565b90916165446165589195949561653e611738565b506164ef565b926165526305f5e10061650e565b90611af2565b9161656e6165678383906124e4565b8490612556565b949283616590575b505050616580575b565b9061658a906164ef565b9061657e565b6165b89293506165b2916165a76165ac92886124e4565b612556565b92610401565b91610401565b105f8080616576565b90916165db6165ef919594956165d5611738565b506164ef565b926165e96305f5e10061650e565b90611af2565b6166046165fd8383906124e4565b8490612556565b949283616626575b505050616616575b565b90616620906164ef565b90616614565b61664e9293506166489161663d61664292886124e4565b612556565b92610401565b91610401565b105f808061660c565b90616660611738565b50818110908218021890565b6166759061038d565b90565b61668190610371565b90565b61669861669361669d92610316565b61036e565b610401565b90565b6166a8611863565b507f00000000000000000000000000000000000000000000000000000000000000006166ec6166e66166e16166dc3061666c565b616678565b616684565b91610401565b1490565b639f03a0265f526004601cfd5b905f8092389238915af11561670e57565b63b12d13eb5f526004601cfd5b919060145260345263a9059cbb60601b5f5260205f6044601082855af1908160015f5114161561674e575b50505f603452565b3d903b15171015616760575f80616746565b6390b8ec185f526004601cfd5b616775611863565b50600190565b6167e8916167e361678f60016002016108a6565b61679b600280016108a6565b93816167b76167b16167ac5f611965565b610321565b91610321565b036167fa575b846167d86167d26167cd5f611965565b610321565b91610321565b036167ea575b6160cd565b6160cd565b565b6167f585859061680a565b6167de565b61680582829061680a565b6167bd565b9061682191903361681a3061400f565b9192615fc9565b56fea2646970667358221220e12fec1b17fdd8d1c117b2c39bfed3c463eb97099795994b197788368ce9963264736f6c634300081c0033",
        "linkReferences": {}
    },
    "methodIdentifiers": {
        "DOMAIN_SEPARATOR()": "3644e515",
        "allowance(address,address)": "dd62ed3e",
        "approve(address,uint256)": "095ea7b3",
        "balanceOf(address)": "70a08231",
        "calculateNotionalValue()": "8a69f5f2",
        "cancelAllReplace(uint32[],uint32[],uint96[],uint96[])": "6463ffd1",
        "cancelOwnershipHandover()": "54d1f13d",
        "completeOwnershipHandover(address)": "f04e283e",
        "crankGas(uint256,uint256)": "f0c175a3",
        "ctx()": "277838df",
        "decimals()": "313ce567",
        "deposit(uint256,uint256)": "e2bbb158",
        "depositSingleSide(uint256,uint256,uint256,bool)": "8340582b",
        "gasCrank()": "49476574",
        "gasCrankCooldown()": "4e7e156e",
        "gasFeeOutMax()": "905221a4",
        "getPostedBalances()": "699f706e",
        "getRestingBalances()": "e04d89da",
        "initialize(address,address,address,address,address,uint256,uint256,uint256)": "7403c6cd",
        "lastCrankTime()": "362a1f57",
        "lastDepositTime(address)": "02527753",
        "marginAccount()": "f742269d",
        "name()": "06fdde03",
        "nonces(address)": "7ecebe00",
        "operator()": "570ca735",
        "owner()": "8da5cb5b",
        "ownershipHandoverExpiresAt(address)": "fee81cf4",
        "permit(address,address,uint256,uint256,uint8,bytes32,bytes32)": "d505accf",
        "previewDepositInAmounts(uint256)": "0516c55b",
        "previewDepositInShares(uint256,uint256)": "1c26e621",
        "previewWithdrawInAmounts(uint256)": "3098f459",
        "previewWithdrawInShares(uint256,uint256)": "fae5df6a",
        "proxiableUUID()": "52d1902d",
        "renounceOwnership()": "715018a6",
        "requestOwnershipHandover()": "25692962",
        "setGasParams(address,uint256,uint256)": "21729db3",
        "setUnlockInterval(uint256)": "322f1b35",
        "symbol()": "95d89b41",
        "totalSupply()": "18160ddd",
        "transfer(address,uint256)": "a9059cbb",
        "transferFrom(address,address,uint256)": "23b872dd",
        "transferOwnership(address)": "f2fde38b",
        "unlockInterval()": "343054cd",
        "upgradeToAndCall(address,bytes)": "4f1ef286",
        "withdraw(uint256)": "2e1a7d4d",
        "withdrawSingleSide(uint256,bool,uint256)": "54f9137a"
    },
    "id": 48
}