{
    "abi": [
        {
            "type": "constructor",
            "inputs": [],
            "stateMutability": "nonpayable"
        },
        {
            "type": "receive",
            "stateMutability": "payable"
        },
        {
            "type": "function",
            "name": "balances",
            "inputs": [
                {
                    "name": "",
                    "type": "bytes32",
                    "internalType": "bytes32"
                }
            ],
            "outputs": [
                {
                    "name": "",
                    "type": "uint256",
                    "internalType": "uint256"
                }
            ],
            "stateMutability": "view"
        },
        {
            "type": "function",
            "name": "batchWithdrawMaxTokens",
            "inputs": [
                {
                    "name": "_tokens",
                    "type": "address[]",
                    "internalType": "address[]"
                }
            ],
            "outputs": [],
            "stateMutability": "nonpayable"
        },
        {
            "type": "function",
            "name": "cancelOwnershipHandover",
            "inputs": [],
            "outputs": [],
            "stateMutability": "payable"
        },
        {
            "type": "function",
            "name": "completeOwnershipHandover",
            "inputs": [
                {
                    "name": "pendingOwner",
                    "type": "address",
                    "internalType": "address"
                }
            ],
            "outputs": [],
            "stateMutability": "payable"
        },
        {
            "type": "function",
            "name": "creditFee",
            "inputs": [
                {
                    "name": "_assetA",
                    "type": "address",
                    "internalType": "address"
                },
                {
                    "name": "_feeA",
                    "type": "uint256",
                    "internalType": "uint256"
                },
                {
                    "name": "_assetB",
                    "type": "address",
                    "internalType": "address"
                },
                {
                    "name": "_feeB",
                    "type": "uint256",
                    "internalType": "uint256"
                }
            ],
            "outputs": [],
            "stateMutability": "nonpayable"
        },
        {
            "type": "function",
            "name": "creditUser",
            "inputs": [
                {
                    "name": "_user",
                    "type": "address",
                    "internalType": "address"
                },
                {
                    "name": "_token",
                    "type": "address",
                    "internalType": "address"
                },
                {
                    "name": "_amount",
                    "type": "uint256",
                    "internalType": "uint256"
                },
                {
                    "name": "_useMargin",
                    "type": "bool",
                    "internalType": "bool"
                }
            ],
            "outputs": [],
            "stateMutability": "nonpayable"
        },
        {
            "type": "function",
            "name": "creditUsersEncoded",
            "inputs": [
                {
                    "name": "_encodedData",
                    "type": "bytes",
                    "internalType": "bytes"
                }
            ],
            "outputs": [],
            "stateMutability": "nonpayable"
        },
        {
            "type": "function",
            "name": "debitUser",
            "inputs": [
                {
                    "name": "_user",
                    "type": "address",
                    "internalType": "address"
                },
                {
                    "name": "_token",
                    "type": "address",
                    "internalType": "address"
                },
                {
                    "name": "_amount",
                    "type": "uint256",
                    "internalType": "uint256"
                }
            ],
            "outputs": [],
            "stateMutability": "nonpayable"
        },
        {
            "type": "function",
            "name": "deposit",
            "inputs": [
                {
                    "name": "_user",
                    "type": "address",
                    "internalType": "address"
                },
                {
                    "name": "_token",
                    "type": "address",
                    "internalType": "address"
                },
                {
                    "name": "_amount",
                    "type": "uint256",
                    "internalType": "uint256"
                }
            ],
            "outputs": [],
            "stateMutability": "payable"
        },
        {
            "type": "function",
            "name": "getBalance",
            "inputs": [
                {
                    "name": "_user",
                    "type": "address",
                    "internalType": "address"
                },
                {
                    "name": "_token",
                    "type": "address",
                    "internalType": "address"
                }
            ],
            "outputs": [
                {
                    "name": "",
                    "type": "uint256",
                    "internalType": "uint256"
                }
            ],
            "stateMutability": "view"
        },
        {
            "type": "function",
            "name": "initialize",
            "inputs": [
                {
                    "name": "_owner",
                    "type": "address",
                    "internalType": "address"
                },
                {
                    "name": "_router",
                    "type": "address",
                    "internalType": "address"
                },
                {
                    "name": "_feeCollector",
                    "type": "address",
                    "internalType": "address"
                },
                {
                    "name": "_trustedForwarder",
                    "type": "address",
                    "internalType": "address"
                }
            ],
            "outputs": [],
            "stateMutability": "nonpayable"
        },
        {
            "type": "function",
            "name": "isTrustedForwarder",
            "inputs": [
                {
                    "name": "forwarder",
                    "type": "address",
                    "internalType": "address"
                }
            ],
            "outputs": [
                {
                    "name": "",
                    "type": "bool",
                    "internalType": "bool"
                }
            ],
            "stateMutability": "view"
        },
        {
            "type": "function",
            "name": "owner",
            "inputs": [],
            "outputs": [
                {
                    "name": "result",
                    "type": "address",
                    "internalType": "address"
                }
            ],
            "stateMutability": "view"
        },
        {
            "type": "function",
            "name": "ownershipHandoverExpiresAt",
            "inputs": [
                {
                    "name": "pendingOwner",
                    "type": "address",
                    "internalType": "address"
                }
            ],
            "outputs": [
                {
                    "name": "result",
                    "type": "uint256",
                    "internalType": "uint256"
                }
            ],
            "stateMutability": "view"
        },
        {
            "type": "function",
            "name": "proxiableUUID",
            "inputs": [],
            "outputs": [
                {
                    "name": "",
                    "type": "bytes32",
                    "internalType": "bytes32"
                }
            ],
            "stateMutability": "view"
        },
        {
            "type": "function",
            "name": "renounceOwnership",
            "inputs": [],
            "outputs": [],
            "stateMutability": "payable"
        },
        {
            "type": "function",
            "name": "requestOwnershipHandover",
            "inputs": [],
            "outputs": [],
            "stateMutability": "payable"
        },
        {
            "type": "function",
            "name": "setFeeCollector",
            "inputs": [
                {
                    "name": "_feeCollector",
                    "type": "address",
                    "internalType": "address"
                }
            ],
            "outputs": [],
            "stateMutability": "nonpayable"
        },
        {
            "type": "function",
            "name": "toggleProtocolState",
            "inputs": [
                {
                    "name": "_state",
                    "type": "bool",
                    "internalType": "bool"
                }
            ],
            "outputs": [],
            "stateMutability": "nonpayable"
        },
        {
            "type": "function",
            "name": "transferOwnership",
            "inputs": [
                {
                    "name": "newOwner",
                    "type": "address",
                    "internalType": "address"
                }
            ],
            "outputs": [],
            "stateMutability": "payable"
        },
        {
            "type": "function",
            "name": "updateMarkets",
            "inputs": [
                {
                    "name": "_marketAddress",
                    "type": "address",
                    "internalType": "address"
                }
            ],
            "outputs": [],
            "stateMutability": "nonpayable"
        },
        {
            "type": "function",
            "name": "upgradeToAndCall",
            "inputs": [
                {
                    "name": "newImplementation",
                    "type": "address",
                    "internalType": "address"
                },
                {
                    "name": "data",
                    "type": "bytes",
                    "internalType": "bytes"
                }
            ],
            "outputs": [],
            "stateMutability": "payable"
        },
        {
            "type": "function",
            "name": "verifiedMarket",
            "inputs": [
                {
                    "name": "",
                    "type": "address",
                    "internalType": "address"
                }
            ],
            "outputs": [
                {
                    "name": "",
                    "type": "bool",
                    "internalType": "bool"
                }
            ],
            "stateMutability": "view"
        },
        {
            "type": "function",
            "name": "withdraw",
            "inputs": [
                {
                    "name": "_amount",
                    "type": "uint256",
                    "internalType": "uint256"
                },
                {
                    "name": "_token",
                    "type": "address",
                    "internalType": "address"
                }
            ],
            "outputs": [],
            "stateMutability": "nonpayable"
        },
        {
            "type": "event",
            "name": "Deposit",
            "inputs": [
                {
                    "name": "owner",
                    "type": "address",
                    "indexed": false,
                    "internalType": "address"
                },
                {
                    "name": "token",
                    "type": "address",
                    "indexed": false,
                    "internalType": "address"
                },
                {
                    "name": "amount",
                    "type": "uint256",
                    "indexed": false,
                    "internalType": "uint256"
                }
            ],
            "anonymous": false
        },
        {
            "type": "event",
            "name": "FeeCollectorUpdated",
            "inputs": [
                {
                    "name": "newFeeCollector",
                    "type": "address",
                    "indexed": false,
                    "internalType": "address"
                }
            ],
            "anonymous": false
        },
        {
            "type": "event",
            "name": "Initialized",
            "inputs": [
                {
                    "name": "version",
                    "type": "uint64",
                    "indexed": false,
                    "internalType": "uint64"
                }
            ],
            "anonymous": false
        },
        {
            "type": "event",
            "name": "OwnershipHandoverCanceled",
            "inputs": [
                {
                    "name": "pendingOwner",
                    "type": "address",
                    "indexed": true,
                    "internalType": "address"
                }
            ],
            "anonymous": false
        },
        {
            "type": "event",
            "name": "OwnershipHandoverRequested",
            "inputs": [
                {
                    "name": "pendingOwner",
                    "type": "address",
                    "indexed": true,
                    "internalType": "address"
                }
            ],
            "anonymous": false
        },
        {
            "type": "event",
            "name": "OwnershipTransferred",
            "inputs": [
                {
                    "name": "oldOwner",
                    "type": "address",
                    "indexed": true,
                    "internalType": "address"
                },
                {
                    "name": "newOwner",
                    "type": "address",
                    "indexed": true,
                    "internalType": "address"
                }
            ],
            "anonymous": false
        },
        {
            "type": "event",
            "name": "ProtocolStateUpdated",
            "inputs": [
                {
                    "name": "newState",
                    "type": "bool",
                    "indexed": false,
                    "internalType": "bool"
                }
            ],
            "anonymous": false
        },
        {
            "type": "event",
            "name": "Upgraded",
            "inputs": [
                {
                    "name": "implementation",
                    "type": "address",
                    "indexed": true,
                    "internalType": "address"
                }
            ],
            "anonymous": false
        },
        {
            "type": "event",
            "name": "Withdrawal",
            "inputs": [
                {
                    "name": "owner",
                    "type": "address",
                    "indexed": false,
                    "internalType": "address"
                },
                {
                    "name": "token",
                    "type": "address",
                    "indexed": false,
                    "internalType": "address"
                },
                {
                    "name": "amount",
                    "type": "uint256",
                    "indexed": false,
                    "internalType": "uint256"
                }
            ],
            "anonymous": false
        },
        {
            "type": "error",
            "name": "AlreadyInitialized",
            "inputs": []
        },
        {
            "type": "error",
            "name": "FeeCollectorNotChanged",
            "inputs": []
        },
        {
            "type": "error",
            "name": "InsufficientBalance",
            "inputs": []
        },
        {
            "type": "error",
            "name": "InvalidInitialization",
            "inputs": []
        },
        {
            "type": "error",
            "name": "NativeAssetMismatch",
            "inputs": []
        },
        {
            "type": "error",
            "name": "NewOwnerIsZeroAddress",
            "inputs": []
        },
        {
            "type": "error",
            "name": "NoHandoverRequest",
            "inputs": []
        },
        {
            "type": "error",
            "name": "NotInitializing",
            "inputs": []
        },
        {
            "type": "error",
            "name": "OnlyRouterAllowed",
            "inputs": []
        },
        {
            "type": "error",
            "name": "OnlyVerifiedMarketsAllowed",
            "inputs": []
        },
        {
            "type": "error",
            "name": "ProtocolPaused",
            "inputs": []
        },
        {
            "type": "error",
            "name": "ProtocolStateNotChanged",
            "inputs": []
        },
        {
            "type": "error",
            "name": "Unauthorized",
            "inputs": []
        },
        {
            "type": "error",
            "name": "UnauthorizedCallContext",
            "inputs": []
        },
        {
            "type": "error",
            "name": "UpgradeFailed",
            "inputs": []
        },
        {
            "type": "error",
            "name": "ZeroAddressNotAllowed",
            "inputs": []
        }
    ],
    "bytecode": {
        "object": "0x60a080604052346099573060805263409feecd195460018116608c5760011c6002600160401b0319016048575b61137d908161009e8239608051818181610b7b0152610c0f0152f35b6002600160411b0363409feecd19556001600160401b0360209081527fc7f505b2f371ae2175ee4913f4499e1f2633a7b5936321eed1cdaeb6115181d29080a1602c565b63f92ee8a95f526004601cfd5b5f80fdfe6080604052600436101561001a575b3615610018575f80fd5b005b5f3560e01c8062f714ce14610fe657806301aef34914610f645780630f163fa814610de25780632569296214610d9957806349f59b6214610cfc5780634f1ef28614610bd657806352d1902d14610b6857806354d1f13d14610b24578063572b6c0514610af25780635f71a07c14610ab55780636c13925214610a215780636f5b601e14610917578063715018a6146108ae57806375eab98e146107e75780638340f549146105d95780638909aa3f146105af5780638da5cb5b14610585578063a42dce80146104d4578063d4fac45d14610494578063e004f924146103c6578063f04e283e14610379578063f2fde38b1461033e578063f8c8765e1461015b5763fee81cf40361000e57346101575760203660031901126101575761013e6110f2565b63389a75e1600c525f52602080600c2054604051908152f35b5f80fd5b34610157576080366003190112610157576101746110f2565b61017c6110dc565b610184611108565b606435906001600160a01b0382168092036101575763409feecd19938454806003875561030d575b506001600160a01b03169081158015806102fb575b806102e9575b806102e0575b156102b857638b78c6d819546102ab5785946001600160a01b0393849260ff1b8117638b78c6d819555f7f8be0079c531659141344cd1fd0a4f28419497f9722a3daafe3b4186f6b6457e08180a31673ffffffffffffffffffffffffffffffffffffffff1960035416176003551673ffffffffffffffffffffffffffffffffffffffff19600454161760045573ffffffffffffffffffffffffffffffffffffffff195f5416175f5561027b57005b6002905560016020527fc7f505b2f371ae2175ee4913f4499e1f2633a7b5936321eed1cdaeb6115181d2602080a1005b630dc149f05f526004601cfd5b7f8579befe000000000000000000000000000000000000000000000000000000005f5260045ffd5b508315156101cd565b506001600160a01b03821615156101c7565b506001600160a01b03851615156101c1565b9094600182811c14303b1015610331576001600160a01b039160ff1b1b94906101ac565b63f92ee8a95f526004601cfd5b6020366003190112610157576103526110f2565b61035a6112e7565b8060601b1561036c5761001890611303565b637448fbae5f526004601cfd5b60203660031901126101575761038d6110f2565b6103956112e7565b63389a75e1600c52805f526020600c2090815442116103b9575f6100189255611303565b636f5e88185f526004601cfd5b3461015757602036600319011261015757600435801515809103610157576103ec6112e7565b5f548160ff8260a01c1615151461046c57816020917fffffffffffffffffffffff00ffffffffffffffffffffffffffffffffffffffff74ff00000000000000000000000000000000000000007fccccd486db37343dfe81f4fa3daf9a6b8dabbfab399d3dd2f5291fbeccd3d3079560a01b169116175f55604051908152a1005b7f4df55d9c000000000000000000000000000000000000000000000000000000005f5260045ffd5b34610157576040366003190112610157576104be6104b06110f2565b6104b86110dc565b90611226565b5f526001602052602060405f2054604051908152f35b34610157576020366003190112610157576104ed6110f2565b6104f56112e7565b6001600160a01b03600454911690816001600160a01b0382161461055d57817fe5693914d19c789bdee50a362998c0bc8d035a835f9871da5d51152f0582c34f9273ffffffffffffffffffffffffffffffffffffffff196020931617600455604051908152a1005b7f9fb4ba3a000000000000000000000000000000000000000000000000000000005f5260045ffd5b34610157575f366003190112610157576020638b78c6d819546001600160a01b0360405191168152f35b34610157576020366003190112610157576004355f526001602052602060405f2054604051908152f35b6105e236611160565b9160ff5f5460a01c166107bf576001600160a01b038116156102b8576001600160a01b038216610701578234036106d9576040519260208401906bffffffffffffffffffffffff198360601b1682525f603486015260288552606085019185831067ffffffffffffffff8411176106c5577f5548c837ab068cf56a2c2479df0882a4922fd203edb7517321831d95078c5f62956106c0936040525190205f52600160205260405f206106958282546111df565b90555b604051938493846001600160a01b036040929594938160608401971683521660208201520152565b0390a1005b634e487b7160e01b5f52604160045260245ffd5b7fcd41a9e3000000000000000000000000000000000000000000000000000000005f5260045ffd5b346106d9576107108282611226565b5f52600160205260405f206107268482546111df565b90556107306111ec565b60405190846060523060405260601b602c526f23b872dd000000000000000000000000600c5260205f6064601c82875af18060015f511416156107a1575b507f5548c837ab068cf56a2c2479df0882a4922fd203edb7517321831d95078c5f62936106c0915f606052604052610698565b3d843b151710156107b2578461076e565b637939f4245f526004601cfd5b7f44279255000000000000000000000000000000000000000000000000000000005f5260045ffd5b34610157576080366003190112610157576108006110f2565b6108086110dc565b906044359060643580151581036101575760ff5f5460a01c166107bf57335f52600260205260ff60405f205416156108865715610864579161084a9192611226565b5f52600160205261086060405f209182546111df565b9055005b6001600160a01b0383161561087c5761001892611271565b61001892506112cb565b7fe8430787000000000000000000000000000000000000000000000000000000005f5260045ffd5b5f366003190112610157576108c16112e7565b5f638b78c6d819547f8be0079c531659141344cd1fd0a4f28419497f9722a3daafe3b4186f6b6457e08280a37f8000000000000000000000000000000000000000000000000000000000000000638b78c6d81955005b346101575760203660031901126101575760043567ffffffffffffffff811161015757610948903690600401611132565b9060ff5f5460a01c166107bf57335f52600260205260ff60405f20541615610886575f905b82821061097657005b6080820191828111610a0d57838311610157578101916109958361111e565b926109a26020820161111e565b60606040830135920135948515158603610157576001600160a01b03809116911692945f146109f457916109d69192611226565b5f5260016020526109ec60405f209182546111df565b90555b61096d565b8215610a03576109ef92611271565b6109ef92506112cb565b634e487b7160e01b5f52601160045260245ffd5b3461015757610a2f36611160565b919060ff5f5460a01c166107bf57335f52600260205260ff60405f2054161561088657610a5c8183611226565b5f5260016020528260405f205410610a8d57610a7791611226565b5f52600160205261086060405f2091825461119a565b7ff4d678b8000000000000000000000000000000000000000000000000000000005f5260045ffd5b34610157576020366003190112610157576001600160a01b03610ad66110f2565b165f526002602052602060ff60405f2054166040519015158152f35b34610157576020366003190112610157576020610b0d6110f2565b6001600160a01b03805f5416911614604051908152f35b5f3660031901126101575763389a75e1600c52335f525f6020600c2055337ffa7b8eab7da67f412cc9575ed43464468f9bfbae89d1675917346ca6d8fe3c925f80a2005b34610157575f36600319011261015757307f000000000000000000000000000000000000000000000000000000000000000003610bc95760206040517f360894a13ba1a3210667c828492db98dca3e2076cc3735a920a3ca505d382bbc8152f35b639f03a0265f526004601cfd5b604036600319011261015757610bea6110f2565b60243567ffffffffffffffff811161015757610c0a903690600401611132565b9091307f000000000000000000000000000000000000000000000000000000000000000014610bc9576001600160a01b0390610c446112e7565b163d5f526352d1902d6001527f360894a13ba1a3210667c828492db98dca3e2076cc3735a920a3ca505d382bbc602060016004601d855afa5103610cee57807fbc7cd75a20ee27fd9adebab32041f755214dbc6bffa90cc0225b39da2e5c2d3b5f80a281817f360894a13ba1a3210667c828492db98dca3e2076cc3735a920a3ca505d382bbc55610cd157005b815f926040519485378338925af415610ce657005b3d5f823e3d90fd5b6355299b496001526004601dfd5b3461015757608036600319011261015757610d156110f2565b610d1d611108565b60ff5f5460a01c166107bf57335f52600260205260ff60405f2054161561088657610d56610d81926001600160a01b0360045416611226565b5f52600160205260405f20610d6e60243582546111df565b90556001600160a01b0360045416611226565b5f52600160205260405f2061086060643582546111df565b5f3660031901126101575763389a75e1600c52335f526202a30042016020600c2055337fdbf36a107da19e49527a7176a1babf963b4b0ff8cde35ee35d6cd8f1f9ac7e1d5f80a2005b346101575760203660031901126101575760043567ffffffffffffffff811161015757366023820112156101575780600401359067ffffffffffffffff8211610157576024810190602436918460051b0101116101575760ff5f5460a01c166107bf575f5b828110610e5057005b600190610e71610e5e6111ec565b6104b8610e6c8488886111a7565b6111cb565b5f52816020527f2717ead6b9200dd235aad468c9809ea400fe33ac69b5bfaa6d3e90fc922b639860405f2054610eb6610ea86111ec565b6104b8610e6c868a8a6111a7565b5f52836020525f604081205580610f13575b610ed06111ec565b610f0a610ee1610e6c868a8a6111a7565b92604051938493846001600160a01b036040929594938160608401971683521660208201520152565b0390a101610e47565b6001600160a01b03610f29610e6c8589896111a7565b16610f4457610f3f81610f3a6111ec565b6112cb565b610ec8565b610f3f81610f56610e6c868a8a6111a7565b610f5e6111ec565b90611271565b3461015757602036600319011261015757610f7d6110f2565b6001600160a01b03600354163303610fbe5760ff5f5460a01c166107bf576001600160a01b03165f908152600260205260409020805460ff19166001179055005b7fe84c4d58000000000000000000000000000000000000000000000000000000005f5260045ffd5b34610157576040366003190112610157576004356110026110dc565b60ff5f5460a01c166107bf5761101f8161101a6111ec565b611226565b5f52600160205260405f20548211610a8d577f2717ead6b9200dd235aad468c9809ea400fe33ac69b5bfaa6d3e90fc922b63989161105f8261101a6111ec565b5f52600160205260405f2061107582825461119a565b90556001600160a01b0382166110c55761109181610f3a6111ec565b6106c061109c6111ec565b91604051938493846001600160a01b036040929594938160608401971683521660208201520152565b6110d7816110d16111ec565b84611271565b611091565b602435906001600160a01b038216820361015757565b600435906001600160a01b038216820361015757565b604435906001600160a01b038216820361015757565b35906001600160a01b038216820361015757565b9181601f840112156101575782359167ffffffffffffffff8311610157576020838186019501011161015757565b6060906003190112610157576004356001600160a01b038116810361015757906024356001600160a01b0381168103610157579060443590565b91908203918211610a0d57565b91908110156111b75760051b0190565b634e487b7160e01b5f52603260045260245ffd5b356001600160a01b03811681036101575790565b91908201809211610a0d57565b6001600160a01b035f541633148061121b575b15611217576013193601368111610a0d573560601c90565b3390565b5060143610156111ff565b6040516bffffffffffffffffffffffff19606092831b81166020830190815293831b1660348201526028815290810181811067ffffffffffffffff8211176106c55760405251902090565b91906014526034526fa9059cbb0000000000000000000000005f5260205f6044601082855af1908160015f511416156112ad575b50505f603452565b3b153d1710156112be575f806112a5565b6390b8ec185f526004601cfd5b5f80809338935af1156112da57565b63b12d13eb5f526004601cfd5b638b78c6d8195433036112f657565b6382b429005f526004601cfd5b6001600160a01b031680638b78c6d819547f8be0079c531659141344cd1fd0a4f28419497f9722a3daafe3b4186f6b6457e05f80a3801560ff1b17638b78c6d8195556fea26469706673582212202f6dafa7ca85988d9bf7449f5284ef89b56716e74ab0668f8d77e13e282a699e64736f6c634300081e0033",
        "linkReferences": {}
    },
    "methodIdentifiers": {
        "balances(bytes32)": "8909aa3f",
        "batchWithdrawMaxTokens(address[])": "0f163fa8",
        "cancelOwnershipHandover()": "54d1f13d",
        "completeOwnershipHandover(address)": "f04e283e",
        "creditFee(address,uint256,address,uint256)": "49f59b62",
        "creditUser(address,address,uint256,bool)": "75eab98e",
        "creditUsersEncoded(bytes)": "6f5b601e",
        "debitUser(address,address,uint256)": "6c139252",
        "deposit(address,address,uint256)": "8340f549",
        "getBalance(address,address)": "d4fac45d",
        "initialize(address,address,address,address)": "f8c8765e",
        "isTrustedForwarder(address)": "572b6c05",
        "owner()": "8da5cb5b",
        "ownershipHandoverExpiresAt(address)": "fee81cf4",
        "proxiableUUID()": "52d1902d",
        "renounceOwnership()": "715018a6",
        "requestOwnershipHandover()": "25692962",
        "setFeeCollector(address)": "a42dce80",
        "toggleProtocolState(bool)": "e004f924",
        "transferOwnership(address)": "f2fde38b",
        "updateMarkets(address)": "01aef349",
        "upgradeToAndCall(address,bytes)": "4f1ef286",
        "verifiedMarket(address)": "5f71a07c",
        "withdraw(uint256,address)": "00f714ce"
    },
    "id": 3
}