{
    "_format": "hh-sol-artifact-1",
    "contractName": "MonadDeployer",
    "sourceName": "contracts/periphery/MonadDeployer.sol",
    "abi": [
        {
            "inputs": [
                {
                    "internalType": "contract IRouter",
                    "name": "_router",
                    "type": "address"
                },
                {
                    "internalType": "address",
                    "name": "_owner",
                    "type": "address"
                },
                {
                    "internalType": "address",
                    "name": "_marginAccount",
                    "type": "address"
                },
                {
                    "internalType": "address",
                    "name": "_kuruCollective",
                    "type": "address"
                },
                {
                    "internalType": "uint96",
                    "name": "_kuruAmmSpread",
                    "type": "uint96"
                },
                {
                    "internalType": "uint256",
                    "name": "_kuruCollectiveFee",
                    "type": "uint256"
                }
            ],
            "stateMutability": "nonpayable",
            "type": "constructor"
        },
        {
            "inputs": [],
            "name": "AlreadyInitialized",
            "type": "error"
        },
        {
            "inputs": [
                {
                    "internalType": "uint256",
                    "name": "expected",
                    "type": "uint256"
                },
                {
                    "internalType": "uint256",
                    "name": "received",
                    "type": "uint256"
                }
            ],
            "name": "InsufficientAssets",
            "type": "error"
        },
        {
            "inputs": [],
            "name": "NewOwnerIsZeroAddress",
            "type": "error"
        },
        {
            "inputs": [],
            "name": "NoHandoverRequest",
            "type": "error"
        },
        {
            "inputs": [],
            "name": "Unauthorized",
            "type": "error"
        },
        {
            "anonymous": false,
            "inputs": [
                {
                    "indexed": true,
                    "internalType": "address",
                    "name": "pendingOwner",
                    "type": "address"
                }
            ],
            "name": "OwnershipHandoverCanceled",
            "type": "event"
        },
        {
            "anonymous": false,
            "inputs": [
                {
                    "indexed": true,
                    "internalType": "address",
                    "name": "pendingOwner",
                    "type": "address"
                }
            ],
            "name": "OwnershipHandoverRequested",
            "type": "event"
        },
        {
            "anonymous": false,
            "inputs": [
                {
                    "indexed": true,
                    "internalType": "address",
                    "name": "oldOwner",
                    "type": "address"
                },
                {
                    "indexed": true,
                    "internalType": "address",
                    "name": "newOwner",
                    "type": "address"
                }
            ],
            "name": "OwnershipTransferred",
            "type": "event"
        },
        {
            "anonymous": false,
            "inputs": [
                {
                    "indexed": true,
                    "internalType": "address",
                    "name": "token",
                    "type": "address"
                },
                {
                    "indexed": false,
                    "internalType": "string",
                    "name": "tokenURI",
                    "type": "string"
                },
                {
                    "indexed": false,
                    "internalType": "address",
                    "name": "dev",
                    "type": "address"
                },
                {
                    "indexed": false,
                    "internalType": "uint256",
                    "name": "supplyToDev",
                    "type": "uint256"
                },
                {
                    "indexed": false,
                    "internalType": "address",
                    "name": "market",
                    "type": "address"
                },
                {
                    "indexed": false,
                    "internalType": "bytes",
                    "name": "metadata",
                    "type": "bytes"
                }
            ],
            "name": "PumpingTime",
            "type": "event"
        },
        {
            "inputs": [],
            "name": "cancelOwnershipHandover",
            "outputs": [],
            "stateMutability": "payable",
            "type": "function"
        },
        {
            "inputs": [
                {
                    "internalType": "address",
                    "name": "pendingOwner",
                    "type": "address"
                }
            ],
            "name": "completeOwnershipHandover",
            "outputs": [],
            "stateMutability": "payable",
            "type": "function"
        },
        {
            "inputs": [
                {
                    "components": [
                        {
                            "internalType": "string",
                            "name": "name",
                            "type": "string"
                        },
                        {
                            "internalType": "string",
                            "name": "symbol",
                            "type": "string"
                        },
                        {
                            "internalType": "string",
                            "name": "tokenURI",
                            "type": "string"
                        },
                        {
                            "internalType": "uint256",
                            "name": "initialSupply",
                            "type": "uint256"
                        },
                        {
                            "internalType": "address",
                            "name": "dev",
                            "type": "address"
                        },
                        {
                            "internalType": "uint256",
                            "name": "supplyToDev",
                            "type": "uint256"
                        }
                    ],
                    "internalType": "struct MonadDeployer.TokenParams",
                    "name": "tokenParams",
                    "type": "tuple"
                },
                {
                    "components": [
                        {
                            "internalType": "uint256",
                            "name": "nativeTokenAmount",
                            "type": "uint256"
                        },
                        {
                            "internalType": "uint96",
                            "name": "sizePrecision",
                            "type": "uint96"
                        },
                        {
                            "internalType": "uint32",
                            "name": "pricePrecision",
                            "type": "uint32"
                        },
                        {
                            "internalType": "uint32",
                            "name": "tickSize",
                            "type": "uint32"
                        },
                        {
                            "internalType": "uint96",
                            "name": "minSize",
                            "type": "uint96"
                        },
                        {
                            "internalType": "uint96",
                            "name": "maxSize",
                            "type": "uint96"
                        },
                        {
                            "internalType": "uint256",
                            "name": "takerFeeBps",
                            "type": "uint256"
                        },
                        {
                            "internalType": "uint256",
                            "name": "makerFeeBps",
                            "type": "uint256"
                        }
                    ],
                    "internalType": "struct MonadDeployer.MarketParams",
                    "name": "marketParams",
                    "type": "tuple"
                },
                {
                    "internalType": "bytes",
                    "name": "metadata",
                    "type": "bytes"
                }
            ],
            "name": "deployTokenAndMarket",
            "outputs": [
                {
                    "internalType": "address",
                    "name": "market",
                    "type": "address"
                }
            ],
            "stateMutability": "payable",
            "type": "function"
        },
        {
            "inputs": [],
            "name": "kuruAmmSpread",
            "outputs": [
                {
                    "internalType": "uint96",
                    "name": "",
                    "type": "uint96"
                }
            ],
            "stateMutability": "view",
            "type": "function"
        },
        {
            "inputs": [],
            "name": "kuruCollective",
            "outputs": [
                {
                    "internalType": "address",
                    "name": "",
                    "type": "address"
                }
            ],
            "stateMutability": "view",
            "type": "function"
        },
        {
            "inputs": [],
            "name": "kuruCollectiveFee",
            "outputs": [
                {
                    "internalType": "uint256",
                    "name": "",
                    "type": "uint256"
                }
            ],
            "stateMutability": "view",
            "type": "function"
        },
        {
            "inputs": [],
            "name": "owner",
            "outputs": [
                {
                    "internalType": "address",
                    "name": "result",
                    "type": "address"
                }
            ],
            "stateMutability": "view",
            "type": "function"
        },
        {
            "inputs": [
                {
                    "internalType": "address",
                    "name": "pendingOwner",
                    "type": "address"
                }
            ],
            "name": "ownershipHandoverExpiresAt",
            "outputs": [
                {
                    "internalType": "uint256",
                    "name": "result",
                    "type": "uint256"
                }
            ],
            "stateMutability": "view",
            "type": "function"
        },
        {
            "inputs": [],
            "name": "renounceOwnership",
            "outputs": [],
            "stateMutability": "payable",
            "type": "function"
        },
        {
            "inputs": [],
            "name": "requestOwnershipHandover",
            "outputs": [],
            "stateMutability": "payable",
            "type": "function"
        },
        {
            "inputs": [
                {
                    "internalType": "uint96",
                    "name": "_kuruAmmSpread",
                    "type": "uint96"
                }
            ],
            "name": "setKuruAmmSpread",
            "outputs": [],
            "stateMutability": "nonpayable",
            "type": "function"
        },
        {
            "inputs": [
                {
                    "internalType": "address",
                    "name": "_kuruCollective",
                    "type": "address"
                }
            ],
            "name": "setKuruCollective",
            "outputs": [],
            "stateMutability": "nonpayable",
            "type": "function"
        },
        {
            "inputs": [
                {
                    "internalType": "uint256",
                    "name": "_kuruCollectiveFee",
                    "type": "uint256"
                }
            ],
            "name": "setKuruCollectiveFee",
            "outputs": [],
            "stateMutability": "nonpayable",
            "type": "function"
        },
        {
            "inputs": [
                {
                    "internalType": "address",
                    "name": "newOwner",
                    "type": "address"
                }
            ],
            "name": "transferOwnership",
            "outputs": [],
            "stateMutability": "payable",
            "type": "function"
        }
    ],
    "bytecode": "0x60c03461011157601f611b6d38819003918201601f19168301916001600160401b038311848410176101155780849260c094604052833981010312610111578051906001600160a01b03821682036101115761005d60208201610129565b9161006a60408301610129565b61007660608401610129565b60808401516001600160601b03811694919391908590036101115760a001516001600160a01b03909516638b78c6d8198190555f7f8be0079c531659141344cd1fd0a4f28419497f9722a3daafe3b4186f6b6457e08180a36080526001600160a01b031660a05260601b6001600160601b031916175f55600155604051611a2f908161013e823960805181610426015260a0518161061f0152f35b5f80fd5b634e487b7160e01b5f52604160045260245ffd5b51906001600160a01b03821682036101115756fe60806040526004361015610011575f80fd5b5f803560e01c8063230d07f114610b675780632569296214610b1e5780632df15cb214610b015780632eda666a14610ae257806354d1f13d14610a9e578063715018a614610a55578063814f1eb214610a3457806386d0fb95146109ea5780638789af75146109c05780638da5cb5b14610996578063f04e283e14610949578063f2fde38b1461090c578063f7f48c2c146100e95763fee81cf4146100b4575f80fd5b346100e65760203660031901126100e6576100cd610ba8565b9063389a75e1600c5252602080600c2054604051908152f35b80fd5b506101403660031901126107795760043567ffffffffffffffff81116107795760c06003198236030112610779576040519060c0820182811067ffffffffffffffff8211176108f857604052806004013567ffffffffffffffff8111610779576101599060043691840101610be0565b8252602481013567ffffffffffffffff81116107795761017f9060043691840101610be0565b9060208301918252604481013567ffffffffffffffff8111610779576101ab9060043691840101610be0565b9060408401918252606481013560608501526084810135906001600160a01b03821682036107795760a4916080860152013560a084015261010060231936011261077957604051610100810181811067ffffffffffffffff8211176108f8576040526024358152604435926bffffffffffffffffffffffff8416840361077957602082019384526064359063ffffffff8216820361077957604083019182526084359063ffffffff82168203610779576060840191825260a435906bffffffffffffffffffffffff82168203610779576080850191825260c4356bffffffffffffffffffffffff811681036107795760a0860190815260c086019060e435825260e087019261010435845267ffffffffffffffff610124351161077957366023610124350112156107795767ffffffffffffffff61012435600401351161077957366024610124356004013561012435010111610779578a5190519060608c015160405192610ce6928385019185831067ffffffffffffffff8411176108f857610347610355928796610d148839608085526080850190610c36565b908382036020850152610c36565b91604082015260603091015203905ff0801561076e576bffffffffffffffffffffffff63ffffffff80826001600160a01b038195169d511699511697511695511691511691519251936bffffffffffffffffffffffff5f541695604051977fce186ec3000000000000000000000000000000000000000000000000000000008952600260048a01528b60248a01525f60448a01526064890152608488015260a487015260c486015260e4850152610104840152610124830152610144820152602081610164815f6001600160a01b037f0000000000000000000000000000000000000000000000000000000000000000165af190811561076e575f916108be575b5081516104666001548092610c6e565b340361088457506001600160a01b0316936040517f88bb4f6000000000000000000000000000000000000000000000000000000000815261010081600481895afa90811561076e575f91610808575b50606082015160a0830151612710039061271082116107f4578181029181830414901517156107f4576040517f095ea7b30000000000000000000000000000000000000000000000000000000081526001600160a01b03831660048201526127109091046024820181905293906020816044815f8b5af1801561076e576020926001600160a01b03926084926107d9575b50519360405194859384927ffad3cc4b000000000000000000000000000000000000000000000000000000008452896004850152826024850152826044850152306064850152165af1801561076e576107aa575b5061060360206001600160a01b036080840151166105bc856060860151610c94565b6040517fa9059cbb0000000000000000000000000000000000000000000000000000000081526001600160a01b039092166004830152602482015291829081906044820190565b03815f895af1801561076e5761077d575b506001600160a01b037f00000000000000000000000000000000000000000000000000000000000000001691600154925f5460601c90803b156107795760645f9260405196879384927f8340f54900000000000000000000000000000000000000000000000000000000845260048401528560248401528160448401525af191821561076e576020977ff0fd6d939b50d7131baaa6c62ccf46a944f9478bef06d9b667a5a6827c445c5c956106fd958a95610757575b506106e990519360606001600160a01b03608086015116940151610c94565b60405195869460a0865260a0860190610c36565b92858501526040840152876060840152828203608084015261012435600401358252610124356004013560246101243501858401376004610124350135828101850191909152601f01601f191601030190a2604051908152f35b6107649192505f90610bbe565b5f906106e96106ca565b6040513d5f823e3d90fd5b5f80fd5b61079e9060203d6020116107a3575b6107968183610bbe565b810190610ca1565b610614565b503d61078c565b6020813d6020116107d1575b816107c360209383610bbe565b81010312610779575161059a565b3d91506107b6565b6107ef90853d87116107a3576107968183610bbe565b610546565b634e487b7160e01b5f52601160045260245ffd5b9050610100813d821161087c575b816108246101009383610bbe565b810103126107795761087560e061083a83610c5a565b9261084760408201610c7b565b5061085460808201610c7b565b5061086160a08201610c7b565b5061086e60c08201610c7b565b5001610c7b565b505f6104b5565b3d9150610816565b61088f908351610c6e565b7fb97fded1000000000000000000000000000000000000000000000000000000005f526004523460245260445ffd5b90506020813d6020116108f0575b816108d960209383610bbe565b81010312610779576108ea90610c5a565b5f610456565b3d91506108cc565b634e487b7160e01b5f52604160045260245ffd5b602036600319011261077957610920610ba8565b610928610cb9565b8060601b1561093c5761093a90610cd5565b005b637448fbae5f526004601cfd5b60203660031901126107795761095d610ba8565b610965610cb9565b63389a75e1600c52805f526020600c209081544211610989575f61093a9255610cd5565b636f5e88185f526004601cfd5b34610779575f366003190112610779576020638b78c6d819546001600160a01b0360405191168152f35b34610779575f3660031901126107795760206bffffffffffffffffffffffff5f5416604051908152f35b34610779576020366003190112610779576004356bffffffffffffffffffffffff811680910361077957610a1c610cb9565b6bffffffffffffffffffffffff195f5416175f555f80f35b3461077957602036600319011261077957610a4d610cb9565b600435600155005b5f36600319011261077957610a68610cb9565b5f638b78c6d819547f8be0079c531659141344cd1fd0a4f28419497f9722a3daafe3b4186f6b6457e08280a35f638b78c6d81955005b5f3660031901126107795763389a75e1600c52335f525f6020600c2055337ffa7b8eab7da67f412cc9575ed43464468f9bfbae89d1675917346ca6d8fe3c925f80a2005b34610779575f3660031901126107795760205f5460601c604051908152f35b34610779575f366003190112610779576020600154604051908152f35b5f3660031901126107795763389a75e1600c52335f526202a30042016020600c2055337fdbf36a107da19e49527a7176a1babf963b4b0ff8cde35ee35d6cd8f1f9ac7e1d5f80a2005b3461077957602036600319011261077957610b80610ba8565b610b88610cb9565b6bffffffffffffffffffffffff5f549181199060601b169116175f555f80f35b600435906001600160a01b038216820361077957565b90601f8019910116810190811067ffffffffffffffff8211176108f857604052565b81601f820112156107795780359067ffffffffffffffff82116108f85760405192610c15601f8401601f191660200185610bbe565b8284526020838301011161077957815f926020809301838601378301015290565b805180835260209291819084018484015e5f828201840152601f01601f1916010190565b51906001600160a01b038216820361077957565b919082018092116107f457565b51906bffffffffffffffffffffffff8216820361077957565b919082039182116107f457565b90816020910312610779575180151581036107795790565b638b78c6d819543303610cc857565b6382b429005f526004601cfd5b6001600160a01b031680638b78c6d819547f8be0079c531659141344cd1fd0a4f28419497f9722a3daafe3b4186f6b6457e05f80a3638b78c6d8195556fe6080604052346103a157610ce680380380610019816103a5565b9283398101906080818303126103a15780516001600160401b0381116103a157826100459183016103ca565b602082015190926001600160401b0382116103a1576100659183016103ca565b60408201516060909201519091906001600160a01b03811681036103a15783516001600160401b0381116102b5575f54600181811c91168015610397575b602082101461029757601f8111610335575b50602094601f82116001146102d4579481929394955f926102c9575b50508160011b915f199060031b1c1916175f555b82516001600160401b0381116102b557600154600181811c911680156102ab575b602082101461029757601f8111610234575b506020601f82116001146101d157819293945f926101c6575b50508160011b915f199060031b1c1916176001555b6805345cdf77eb68f44c548281019081106101b9576805345cdf77eb68f44c556387a211a2600c525f526020600c20818154019055602052600c5160601c5f7fddf252ad1be2c89b69c2b068fc378daa952ba7f163c4a11628f55a4df523b3ef602080a36040516108ca908161041c8239f35b63e5cfe9575f526004601cfd5b015190505f80610131565b601f1982169060015f52805f20915f5b81811061021c57509583600195969710610204575b505050811b01600155610146565b01515f1960f88460031b161c191690555f80806101f6565b9192602060018192868b0151815501940192016101e1565b60015f527fb10e2d527612073b26eecdfd717e6a320cf44b4afac2b0732d9fcbe2b7fa0cf6601f830160051c8101916020841061028d575b601f0160051c01905b8181106102825750610118565b5f8155600101610275565b909150819061026c565b634e487b7160e01b5f52602260045260245ffd5b90607f1690610106565b634e487b7160e01b5f52604160045260245ffd5b015190505f806100d1565b601f198216955f8052805f20915f5b88811061031d57508360019596979810610305575b505050811b015f556100e5565b01515f1960f88460031b161c191690555f80806102f8565b919260206001819286850151815501940192016102e3565b5f80527f290decd9548b62a8d60345a988386fc84ba6bc95484008f6362f93160ef3e563601f830160051c8101916020841061038d575b601f0160051c01905b81811061038257506100b5565b5f8155600101610375565b909150819061036c565b90607f16906100a3565b5f80fd5b6040519190601f01601f191682016001600160401b038111838210176102b557604052565b81601f820112156103a1578051906001600160401b0382116102b5576103f9601f8301601f19166020016103a5565b92828452602083830101116103a157815f9260208093018386015e830101529056fe60806040526004361015610011575f80fd5b5f3560e01c806306fdde031461070b578063095ea7b31461067c57806318160ddd1461065757806323b872dd14610561578063313ce567146105465780633644e515146104be57806370a082311461048c5780637ecebe001461045a57806395d89b411461033c578063a9059cbb146102ad578063d505accf146100d55763dd62ed3e1461009d575f80fd5b346100d15760403660031901126100d15760206100c96100bb610758565b6100c361076e565b90610857565b604051908152f35b5f80fd5b346100d15760e03660031901126100d1576100ee610758565b6100f661076e565b604435916064356084359260ff841684036100d1576001600160a01b0316938019156e22d473030f116ddee9f6b43ac78ba3861817156102a057610138610784565b6020815191012090824211610293576001600160a01b0360405194169465383775081901600e52855f5260c06020600c20958654957f8b73c3c69bb8fe3d512ecc4cf759cc79239f7b179b0ffacaa9a75d522b39400f8252602082019586528660408301967fc89efdaa54c0f20c7adf612882df0950f5a951637e0307cdcb4c672f298b8bc688528b6060850198468a528c608087019330855260a08820602e527f6e71edae12b1b97f4d1f60370fef10105fa2faae0126114a169c64845d6126c9885252528688525260a082015220604e526042602c205f5260ff1660205260a43560405260c43560605260208060805f60015afa93853d5103610286577f8c5be1e5ebec7d5bd14f71427d1e84f3dd0314c0f7b2291e5b200ac8c7c3b9259460209401905585777f5e9f200000000000000000000000000000000000000000176040526034602c2055a3005b63ddafbaef5f526004601cfd5b631a15a3cc5f526004601cfd5b633f68539a5f526004601cfd5b346100d15760403660031901126100d1576102c6610758565b602435906387a211a2600c52335f526020600c20805480841161032f5783900390555f526020600c20818154019055602052600c5160601c337fddf252ad1be2c89b69c2b068fc378daa952ba7f163c4a11628f55a4df523b3ef602080a3602060405160018152f35b63f4d678b85f526004601cfd5b346100d1575f3660031901126100d1576040515f6001548060011c90600181168015610450575b60208310811461043c5782855290811561042057506001146103ca575b50819003601f01601f191681019067ffffffffffffffff8211818310176103b657604082905281906103b2908261072e565b0390f35b634e487b7160e01b5f52604160045260245ffd5b60015f9081529091507fb10e2d527612073b26eecdfd717e6a320cf44b4afac2b0732d9fcbe2b7fa0cf65b82821061040a57506020915082010182610380565b60018160209254838588010152019101906103f5565b90506020925060ff191682840152151560051b82010182610380565b634e487b7160e01b5f52602260045260245ffd5b91607f1691610363565b346100d15760203660031901126100d157610473610758565b6338377508600c525f52602080600c2054604051908152f35b346100d15760203660031901126100d1576104a5610758565b6387a211a2600c525f52602080600c2054604051908152f35b346100d1575f3660031901126100d157602060a06104da610784565b828151910120604051907f8b73c3c69bb8fe3d512ecc4cf759cc79239f7b179b0ffacaa9a75d522b39400f8252838201527fc89efdaa54c0f20c7adf612882df0950f5a951637e0307cdcb4c672f298b8bc6604082015246606082015230608082015220604051908152f35b346100d1575f3660031901126100d157602060405160128152f35b346100d15760603660031901126100d15761057a610758565b61058261076e565b604435908260601b6e22d473030f116ddee9f6b43ac78ba3330361060d575b6387a211a217600c526020600c20805480841161032f5783900390555f526020600c208181540190556020526001600160a01b03600c5160601c91167fddf252ad1be2c89b69c2b068fc378daa952ba7f163c4a11628f55a4df523b3ef602080a3602060405160018152f35b33602052637f5e9f208117600c526034600c20908154918219610633575b5090506105a1565b82851161064a57846387a211a2930390558561062b565b6313be252b5f526004601cfd5b346100d1575f3660031901126100d15760206805345cdf77eb68f44c54604051908152f35b346100d15760403660031901126100d157610695610758565b602435908119156e22d473030f116ddee9f6b43ac78ba36001600160a01b0383161817156102a057602052637f5e9f20600c52335f52806034600c20555f52602c5160601c337f8c5be1e5ebec7d5bd14f71427d1e84f3dd0314c0f7b2291e5b200ac8c7c3b92560205fa3602060405160018152f35b346100d1575f3660031901126100d1576103b2610726610784565b604051918291825b602060409281835280519182918282860152018484015e5f828201840152601f01601f1916010190565b600435906001600160a01b03821682036100d157565b602435906001600160a01b03821682036100d157565b604051905f80548060011c9060018116801561084d575b60208310811461043c5782865290811561083157506001146107dd575b50829003601f01601f1916820167ffffffffffffffff8111838210176103b657604052565b5f8080529091507f290decd9548b62a8d60345a988386fc84ba6bc95484008f6362f93160ef3e5635b82821061081b5750602091508301015f6107b8565b6001816020925483858901015201910190610806565b90506020925060ff191682850152151560051b8301015f6107b8565b91607f169161079b565b906e22d473030f116ddee9f6b43ac78ba36001600160a01b0382161461088d57602052637f5e9f20600c525f526034600c205490565b50505f199056fea2646970667358221220ff1b4bdf2581e249b7e92d0bfd2048ed82116bfd9a852f6faaa9f62955202ab464736f6c634300081a0033a2646970667358221220eba7cc768751027dd6fc59b4c7743139704bef50d3a98a37c62b07740455471864736f6c634300081a0033",
    "linkReferences": {},
    "deployedLinkReferences": {}
}