{
    "abi": [
        {
            "type": "constructor",
            "inputs": [],
            "stateMutability": "nonpayable"
        },
        {
            "type": "receive",
            "stateMutability": "payable"
        },
        {
            "type": "function",
            "name": "DOMAIN_SEPARATOR",
            "inputs": [],
            "outputs": [
                {
                    "name": "result",
                    "type": "bytes32",
                    "internalType": "bytes32"
                }
            ],
            "stateMutability": "view"
        },
        {
            "type": "function",
            "name": "SPREAD_CONSTANT",
            "inputs": [],
            "outputs": [
                {
                    "name": "",
                    "type": "uint96",
                    "internalType": "uint96"
                }
            ],
            "stateMutability": "view"
        },
        {
            "type": "function",
            "name": "allowance",
            "inputs": [
                {
                    "name": "owner",
                    "type": "address",
                    "internalType": "address"
                },
                {
                    "name": "spender",
                    "type": "address",
                    "internalType": "address"
                }
            ],
            "outputs": [
                {
                    "name": "result",
                    "type": "uint256",
                    "internalType": "uint256"
                }
            ],
            "stateMutability": "view"
        },
        {
            "type": "function",
            "name": "approve",
            "inputs": [
                {
                    "name": "spender",
                    "type": "address",
                    "internalType": "address"
                },
                {
                    "name": "amount",
                    "type": "uint256",
                    "internalType": "uint256"
                }
            ],
            "outputs": [
                {
                    "name": "",
                    "type": "bool",
                    "internalType": "bool"
                }
            ],
            "stateMutability": "nonpayable"
        },
        {
            "type": "function",
            "name": "balanceOf",
            "inputs": [
                {
                    "name": "owner",
                    "type": "address",
                    "internalType": "address"
                }
            ],
            "outputs": [
                {
                    "name": "result",
                    "type": "uint256",
                    "internalType": "uint256"
                }
            ],
            "stateMutability": "view"
        },
        {
            "type": "function",
            "name": "decimals",
            "inputs": [],
            "outputs": [
                {
                    "name": "",
                    "type": "uint8",
                    "internalType": "uint8"
                }
            ],
            "stateMutability": "view"
        },
        {
            "type": "function",
            "name": "deposit",
            "inputs": [
                {
                    "name": "baseDeposit",
                    "type": "uint256",
                    "internalType": "uint256"
                },
                {
                    "name": "quoteDeposit",
                    "type": "uint256",
                    "internalType": "uint256"
                },
                {
                    "name": "minQuoteConsumed",
                    "type": "uint256",
                    "internalType": "uint256"
                },
                {
                    "name": "receiver",
                    "type": "address",
                    "internalType": "address"
                }
            ],
            "outputs": [
                {
                    "name": "",
                    "type": "uint256",
                    "internalType": "uint256"
                }
            ],
            "stateMutability": "payable"
        },
        {
            "type": "function",
            "name": "initialize",
            "inputs": [
                {
                    "name": "_owner",
                    "type": "address",
                    "internalType": "address"
                },
                {
                    "name": "token1_",
                    "type": "address",
                    "internalType": "address"
                },
                {
                    "name": "token2_",
                    "type": "address",
                    "internalType": "address"
                },
                {
                    "name": "_marginAccount",
                    "type": "address",
                    "internalType": "address"
                },
                {
                    "name": "_market",
                    "type": "address",
                    "internalType": "address"
                },
                {
                    "name": "_spreadConstant",
                    "type": "uint96",
                    "internalType": "uint96"
                }
            ],
            "outputs": [],
            "stateMutability": "nonpayable"
        },
        {
            "type": "function",
            "name": "marginAccount",
            "inputs": [],
            "outputs": [
                {
                    "name": "",
                    "type": "address",
                    "internalType": "contract IMarginAccount"
                }
            ],
            "stateMutability": "view"
        },
        {
            "type": "function",
            "name": "market",
            "inputs": [],
            "outputs": [
                {
                    "name": "",
                    "type": "address",
                    "internalType": "contract IOrderBook"
                }
            ],
            "stateMutability": "view"
        },
        {
            "type": "function",
            "name": "marketParams",
            "inputs": [],
            "outputs": [
                {
                    "name": "pricePrecision",
                    "type": "uint32",
                    "internalType": "uint32"
                },
                {
                    "name": "sizePrecision",
                    "type": "uint96",
                    "internalType": "uint96"
                },
                {
                    "name": "baseAssetAddress",
                    "type": "address",
                    "internalType": "address"
                },
                {
                    "name": "baseAssetDecimals",
                    "type": "uint256",
                    "internalType": "uint256"
                },
                {
                    "name": "quoteAssetAddress",
                    "type": "address",
                    "internalType": "address"
                },
                {
                    "name": "quoteAssetDecimals",
                    "type": "uint256",
                    "internalType": "uint256"
                },
                {
                    "name": "tickSize",
                    "type": "uint32",
                    "internalType": "uint32"
                },
                {
                    "name": "minSize",
                    "type": "uint96",
                    "internalType": "uint96"
                },
                {
                    "name": "maxSize",
                    "type": "uint96",
                    "internalType": "uint96"
                },
                {
                    "name": "takerFeeBps",
                    "type": "uint256",
                    "internalType": "uint256"
                },
                {
                    "name": "makerFeeBps",
                    "type": "uint256",
                    "internalType": "uint256"
                }
            ],
            "stateMutability": "view"
        },
        {
            "type": "function",
            "name": "mint",
            "inputs": [
                {
                    "name": "shares",
                    "type": "uint256",
                    "internalType": "uint256"
                },
                {
                    "name": "receiver",
                    "type": "address",
                    "internalType": "address"
                }
            ],
            "outputs": [
                {
                    "name": "",
                    "type": "uint256",
                    "internalType": "uint256"
                },
                {
                    "name": "",
                    "type": "uint256",
                    "internalType": "uint256"
                }
            ],
            "stateMutability": "payable"
        },
        {
            "type": "function",
            "name": "name",
            "inputs": [],
            "outputs": [
                {
                    "name": "",
                    "type": "string",
                    "internalType": "string"
                }
            ],
            "stateMutability": "view"
        },
        {
            "type": "function",
            "name": "nonces",
            "inputs": [
                {
                    "name": "owner",
                    "type": "address",
                    "internalType": "address"
                }
            ],
            "outputs": [
                {
                    "name": "result",
                    "type": "uint256",
                    "internalType": "uint256"
                }
            ],
            "stateMutability": "view"
        },
        {
            "type": "function",
            "name": "owner",
            "inputs": [],
            "outputs": [
                {
                    "name": "",
                    "type": "address",
                    "internalType": "address"
                }
            ],
            "stateMutability": "view"
        },
        {
            "type": "function",
            "name": "permit",
            "inputs": [
                {
                    "name": "owner",
                    "type": "address",
                    "internalType": "address"
                },
                {
                    "name": "spender",
                    "type": "address",
                    "internalType": "address"
                },
                {
                    "name": "value",
                    "type": "uint256",
                    "internalType": "uint256"
                },
                {
                    "name": "deadline",
                    "type": "uint256",
                    "internalType": "uint256"
                },
                {
                    "name": "v",
                    "type": "uint8",
                    "internalType": "uint8"
                },
                {
                    "name": "r",
                    "type": "bytes32",
                    "internalType": "bytes32"
                },
                {
                    "name": "s",
                    "type": "bytes32",
                    "internalType": "bytes32"
                }
            ],
            "outputs": [],
            "stateMutability": "nonpayable"
        },
        {
            "type": "function",
            "name": "previewDeposit",
            "inputs": [
                {
                    "name": "asset1",
                    "type": "uint256",
                    "internalType": "uint256"
                },
                {
                    "name": "asset2",
                    "type": "uint256",
                    "internalType": "uint256"
                }
            ],
            "outputs": [
                {
                    "name": "",
                    "type": "uint256",
                    "internalType": "uint256"
                }
            ],
            "stateMutability": "view"
        },
        {
            "type": "function",
            "name": "previewMint",
            "inputs": [
                {
                    "name": "shares",
                    "type": "uint256",
                    "internalType": "uint256"
                }
            ],
            "outputs": [
                {
                    "name": "",
                    "type": "uint256",
                    "internalType": "uint256"
                },
                {
                    "name": "",
                    "type": "uint256",
                    "internalType": "uint256"
                }
            ],
            "stateMutability": "view"
        },
        {
            "type": "function",
            "name": "previewWithdraw",
            "inputs": [
                {
                    "name": "shares",
                    "type": "uint256",
                    "internalType": "uint256"
                }
            ],
            "outputs": [
                {
                    "name": "",
                    "type": "uint256",
                    "internalType": "uint256"
                },
                {
                    "name": "",
                    "type": "uint256",
                    "internalType": "uint256"
                }
            ],
            "stateMutability": "view"
        },
        {
            "type": "function",
            "name": "proxiableUUID",
            "inputs": [],
            "outputs": [
                {
                    "name": "",
                    "type": "bytes32",
                    "internalType": "bytes32"
                }
            ],
            "stateMutability": "view"
        },
        {
            "type": "function",
            "name": "setMarketParams",
            "inputs": [],
            "outputs": [],
            "stateMutability": "nonpayable"
        },
        {
            "type": "function",
            "name": "symbol",
            "inputs": [],
            "outputs": [
                {
                    "name": "",
                    "type": "string",
                    "internalType": "string"
                }
            ],
            "stateMutability": "view"
        },
        {
            "type": "function",
            "name": "token1",
            "inputs": [],
            "outputs": [
                {
                    "name": "",
                    "type": "address",
                    "internalType": "address"
                }
            ],
            "stateMutability": "view"
        },
        {
            "type": "function",
            "name": "token2",
            "inputs": [],
            "outputs": [
                {
                    "name": "",
                    "type": "address",
                    "internalType": "address"
                }
            ],
            "stateMutability": "view"
        },
        {
            "type": "function",
            "name": "totalAssets",
            "inputs": [],
            "outputs": [
                {
                    "name": "",
                    "type": "uint256",
                    "internalType": "uint256"
                },
                {
                    "name": "",
                    "type": "uint256",
                    "internalType": "uint256"
                }
            ],
            "stateMutability": "view"
        },
        {
            "type": "function",
            "name": "totalSupply",
            "inputs": [],
            "outputs": [
                {
                    "name": "result",
                    "type": "uint256",
                    "internalType": "uint256"
                }
            ],
            "stateMutability": "view"
        },
        {
            "type": "function",
            "name": "transfer",
            "inputs": [
                {
                    "name": "to",
                    "type": "address",
                    "internalType": "address"
                },
                {
                    "name": "amount",
                    "type": "uint256",
                    "internalType": "uint256"
                }
            ],
            "outputs": [
                {
                    "name": "",
                    "type": "bool",
                    "internalType": "bool"
                }
            ],
            "stateMutability": "nonpayable"
        },
        {
            "type": "function",
            "name": "transferFrom",
            "inputs": [
                {
                    "name": "from",
                    "type": "address",
                    "internalType": "address"
                },
                {
                    "name": "to",
                    "type": "address",
                    "internalType": "address"
                },
                {
                    "name": "amount",
                    "type": "uint256",
                    "internalType": "uint256"
                }
            ],
            "outputs": [
                {
                    "name": "",
                    "type": "bool",
                    "internalType": "bool"
                }
            ],
            "stateMutability": "nonpayable"
        },
        {
            "type": "function",
            "name": "transferOwnership",
            "inputs": [
                {
                    "name": "_newOwner",
                    "type": "address",
                    "internalType": "address"
                }
            ],
            "outputs": [],
            "stateMutability": "nonpayable"
        },
        {
            "type": "function",
            "name": "upgradeToAndCall",
            "inputs": [
                {
                    "name": "newImplementation",
                    "type": "address",
                    "internalType": "address"
                },
                {
                    "name": "data",
                    "type": "bytes",
                    "internalType": "bytes"
                }
            ],
            "outputs": [],
            "stateMutability": "payable"
        },
        {
            "type": "function",
            "name": "withdraw",
            "inputs": [
                {
                    "name": "_shares",
                    "type": "uint256",
                    "internalType": "uint256"
                },
                {
                    "name": "_receiver",
                    "type": "address",
                    "internalType": "address"
                },
                {
                    "name": "_owner",
                    "type": "address",
                    "internalType": "address"
                }
            ],
            "outputs": [
                {
                    "name": "",
                    "type": "uint256",
                    "internalType": "uint256"
                },
                {
                    "name": "",
                    "type": "uint256",
                    "internalType": "uint256"
                }
            ],
            "stateMutability": "nonpayable"
        },
        {
            "type": "event",
            "name": "Approval",
            "inputs": [
                {
                    "name": "owner",
                    "type": "address",
                    "indexed": true,
                    "internalType": "address"
                },
                {
                    "name": "spender",
                    "type": "address",
                    "indexed": true,
                    "internalType": "address"
                },
                {
                    "name": "amount",
                    "type": "uint256",
                    "indexed": false,
                    "internalType": "uint256"
                }
            ],
            "anonymous": false
        },
        {
            "type": "event",
            "name": "Initialized",
            "inputs": [
                {
                    "name": "version",
                    "type": "uint64",
                    "indexed": false,
                    "internalType": "uint64"
                }
            ],
            "anonymous": false
        },
        {
            "type": "event",
            "name": "KuruVaultDeposit",
            "inputs": [
                {
                    "name": "amount1",
                    "type": "uint256",
                    "indexed": false,
                    "internalType": "uint256"
                },
                {
                    "name": "amount2",
                    "type": "uint256",
                    "indexed": false,
                    "internalType": "uint256"
                },
                {
                    "name": "shares",
                    "type": "uint256",
                    "indexed": false,
                    "internalType": "uint256"
                },
                {
                    "name": "userAddress",
                    "type": "address",
                    "indexed": false,
                    "internalType": "address"
                }
            ],
            "anonymous": false
        },
        {
            "type": "event",
            "name": "KuruVaultWithdraw",
            "inputs": [
                {
                    "name": "amount1",
                    "type": "uint256",
                    "indexed": false,
                    "internalType": "uint256"
                },
                {
                    "name": "amount2",
                    "type": "uint256",
                    "indexed": false,
                    "internalType": "uint256"
                },
                {
                    "name": "shares",
                    "type": "uint256",
                    "indexed": false,
                    "internalType": "uint256"
                },
                {
                    "name": "userAddress",
                    "type": "address",
                    "indexed": false,
                    "internalType": "address"
                }
            ],
            "anonymous": false
        },
        {
            "type": "event",
            "name": "Transfer",
            "inputs": [
                {
                    "name": "from",
                    "type": "address",
                    "indexed": true,
                    "internalType": "address"
                },
                {
                    "name": "to",
                    "type": "address",
                    "indexed": true,
                    "internalType": "address"
                },
                {
                    "name": "amount",
                    "type": "uint256",
                    "indexed": false,
                    "internalType": "uint256"
                }
            ],
            "anonymous": false
        },
        {
            "type": "event",
            "name": "Upgraded",
            "inputs": [
                {
                    "name": "implementation",
                    "type": "address",
                    "indexed": true,
                    "internalType": "address"
                }
            ],
            "anonymous": false
        },
        {
            "type": "error",
            "name": "AllowanceOverflow",
            "inputs": []
        },
        {
            "type": "error",
            "name": "AllowanceUnderflow",
            "inputs": []
        },
        {
            "type": "error",
            "name": "AskPriceZero",
            "inputs": []
        },
        {
            "type": "error",
            "name": "InsufficientAllowance",
            "inputs": []
        },
        {
            "type": "error",
            "name": "InsufficientBalance",
            "inputs": []
        },
        {
            "type": "error",
            "name": "InsufficientBalance",
            "inputs": []
        },
        {
            "type": "error",
            "name": "InsufficientLiquidityMinted",
            "inputs": []
        },
        {
            "type": "error",
            "name": "InsufficientQuoteToken",
            "inputs": []
        },
        {
            "type": "error",
            "name": "InsufficientQuoteUsed",
            "inputs": []
        },
        {
            "type": "error",
            "name": "InvalidInitialization",
            "inputs": []
        },
        {
            "type": "error",
            "name": "InvalidPermit",
            "inputs": []
        },
        {
            "type": "error",
            "name": "InvalidVaultSize",
            "inputs": []
        },
        {
            "type": "error",
            "name": "NativeAssetMismatch",
            "inputs": []
        },
        {
            "type": "error",
            "name": "NotInitializing",
            "inputs": []
        },
        {
            "type": "error",
            "name": "Permit2AllowanceIsFixedAtInfinity",
            "inputs": []
        },
        {
            "type": "error",
            "name": "PermitExpired",
            "inputs": []
        },
        {
            "type": "error",
            "name": "ReentrancyGuardReentrantCall",
            "inputs": []
        },
        {
            "type": "error",
            "name": "TotalSupplyOverflow",
            "inputs": []
        },
        {
            "type": "error",
            "name": "Uint96Overflow",
            "inputs": []
        },
        {
            "type": "error",
            "name": "Unauthorized",
            "inputs": []
        },
        {
            "type": "error",
            "name": "UnauthorizedCallContext",
            "inputs": []
        },
        {
            "type": "error",
            "name": "UpgradeFailed",
            "inputs": []
        }
    ],
    "bytecode": {
        "object": "0x60a080604052346099573060805263409feecd195460018116608c5760011c6002600160401b0319016048575b612b2e908161009e8239608051818181610edc0152610f8d0152f35b6002600160411b0363409feecd19556001600160401b0360209081527fc7f505b2f371ae2175ee4913f4499e1f2633a7b5936321eed1cdaeb6115181d29080a1602c565b63f92ee8a95f526004601cfd5b5f80fdfe6080604052600436101561001a575b3615610018575f80fd5b005b5f5f3560e01c806301e1d1141461131657806306fdde0314610cf2578063095ea7b31461127a5780630a28a4771461124d57806318160ddd1461122857806323b872dd1461114657806325be124e1461111e578063313ce567146111035780633644e5151461107b5780634f1ef28614610f3757806352d1902d14610ec957806370a0823114610e975780637660b15314610e7f5780637a7af70d14610e545780637b9e68f214610db45780637ecebe0014610d8257806380f5560514610d5a5780638da5cb5b14610d3357806394bf804d14610cf757806395d89b4114610cf2578063a68ee88114610ccc578063a9059cbb14610c5d578063b3d7f6b914610c33578063b460af941461095e578063d21220a714610935578063d246ce161461040e578063d505accf14610242578063dd62ed3e14610215578063f2fde38b146101d5578063f742269d146101ac5763fad3cc4b1461017a575061000e565b60803660031901126101a95760206101a16101936113ba565b6044356024356004356118b6565b604051908152f35b80fd5b50346101a957806003193601126101a9576005546040516001600160a01b039091168152602090f35b50346101a95760203660031901126101a9576101ef611378565b6101f761222f565b81546001600160a01b0319166001600160a01b039190911617815580f35b50346101a95760403660031901126101a95760206101a1610234611378565b61023c61138e565b90611879565b50346101a95760e03660031901126101a95761025c611378565b61026461138e565b604435606435906084359260ff8416840361040a576001600160a01b0316936e22d473030f116ddee9f6b43ac78ba3851882191517156103fd576102a661152d565b60208151910120928042116103f0576040519160018060a01b03169465383775081901600e5285885260c06020600c20938454937f8b73c3c69bb8fe3d512ecc4cf759cc79239f7b179b0ffacaa9a75d522b39400f8252602082019788528460408301987fc89efdaa54c0f20c7adf612882df0950f5a951637e0307cdcb4c672f298b8bc68a528b606085019a468c528c608087019330855260a08820602e527f6e71edae12b1b97f4d1f60370fef10105fa2faae0126114a169c64845d6126c988525252888a525260a082015220604e526042602c20885260ff1660205260a43560405260c43560605260208060808960015afa90853d51036103e3570190556303faf4f960a51b84176040526034602c20557f8c5be1e5ebec7d5bd14f71427d1e84f3dd0314c0f7b2291e5b200ac8c7c3b92590602090a380f35b63ddafbaef88526004601cfd5b631a15a3cc87526004601cfd5b633f68539a86526004601cfd5b8580fd5b50346101a95760c03660031901126101a957610428611378565b61043061138e565b6104386113a4565b836104416113ba565b6084356001600160a01b038116908190036109315760a435936001600160601b03851680950361092d5763409feecd199687548060038a556108fb575b5084546001600160a01b03199081166001600160a01b03928316178655600180549091169188169182179055928315801593906108f25760405163313ce56760e01b8152602081600481895afa80156108e75760ff9188916108c8575b505b16600255600380546001600160a01b0319166001600160a01b038516908117909155978815801598899390916108bf5760405163313ce56760e01b815293506020846004818e5afa9384156108b4578a9460ff918b91610885575b505b1660045560018060a01b0385166001600160601b0360a01b60055416176005556001600160601b0360a01b60065416176006556001600160601b0319600f541617600f55828561058861160a565b610875575b5050610865575b5050156108565781600491604051928380926395d89b4160e01b82525afa90811561084b578291610831575b50915b15610815576040516395d89b4160e01b815292839060049082905afa801561080a57600161065592602080600f9481978a916107e8575b505b6040519784899551918291018487015e840190602d60f81b83830152805192839101602183015e0101602d60f81b838201526d12d554954b5053534b559055531560921b600282015203016010198101845201826113d0565b80519067ffffffffffffffff82116107d4579082916106756010546114f5565b601f8111610760575b50602090601f83116001146106ef57859190836106e4575b50508160011b915f199060031b1c1916176010555b6106b3575080f35b6002905560016020527fc7f505b2f371ae2175ee4913f4499e1f2633a7b5936321eed1cdaeb6115181d2602080a180f35b015190505f80610696565b60108652601f1983169392915f516020612ad95f395f51905f5291875b868110610745575083600195961061072d575b505050811b016010556106ab565b01515f1960f88460031b161c191690555f808061071f565b8183015184558795506001909301926020928301920161070c565b9091925060108552601f830160051c5f516020612ad95f395f51905f520190602084106107bf575b90601f859493920160051c5f516020612ad95f395f51905f5201905b8181106107b1575061067e565b8681558594506001016107a4565b5f516020612ad95f395f51905f529150610788565b634e487b7160e01b84526041600452602484fd5b61080491503d808c833e6107fc81836113d0565b810190611806565b5f6105fa565b6040513d86823e3d90fd5b5060209150600f600161065592848061082c6117e5565b6105fc565b61084591503d8084833e6107fc81836113d0565b5f6105c0565b6040513d84823e3d90fd5b5061085f6117e5565b916105c3565b61086e916121dd565b5f80610594565b61087e916121dd565b5f8261058d565b6108a7915060203d6020116108ad575b61089f81836113d0565b8101906117cc565b5f610538565b503d610895565b6040513d8b823e3d90fd5b60ff601261053a565b6108e1915060203d6020116108ad5761089f81836113d0565b5f6104db565b6040513d89823e3d90fd5b60ff60126104dd565b90979192939450600181811c14303b10156109205760ff1b1b9587939291905f61047e565b63f92ee8a989526004601cfd5b8380fd5b8280fd5b50346101a957806003193601126101a9576001546040516001600160a01b039091168152602090f35b5034610c03576060366003190112610c035760043561097b61138e565b6109836113a4565b61098b612157565b6387a211a2600c52805f526020600c20548311610c24576001600160a01b0381169233849003610c14575b6109bf81612363565b90929693976387a211a2600c52865f526020600c2090815491828811610c0757875f93039055866805345cdf77eb68f44c54036805345cdf77eb68f44c558682525f516020612a995f395f51905f52602083a36006546001600160a01b0316803b15610c03575f928360a4926001600160601b03948560405198899788966327688f0f60e01b8852166004870152166024850152826044850152826064850152151560848401525af18015610bf857610be3575b5060055460015487916001600160a01b039182169116803b1561093157604051627b8a6760e11b8152600481018990526001600160a01b0392909216602483015282908290604490829084905af1801561084b57610bce575b506005546003546001600160a01b039182169116813b1561093157604051627b8a6760e11b8152600481018890526001600160a01b0391909116602482015291908290604490829084905af180156108e757610bb9575b50917f77e17036448e366e2940534013d9c2770da17cc373dfd9b91c931cf85d80844e91610b7584610b636040999660018060a01b03600154168a6129d2565b6003546001600160a01b0316876129d2565b86518681526020810186905260408101919091526001600160a01b03919091166060820152608090a15f516020612ab95f395f51905f525d82519182526020820152f35b610bc48780926113d0565b61040a575f610b23565b81610bd8916113d0565b61040a57855f610acc565b610bf09196505f906113d0565b5f945f610a73565b6040513d5f823e3d90fd5b5f80fd5b63f4d678b85f526004601cfd5b610c1f81338461218c565b6109b6565b631e9acf1760e31b5f5260045ffd5b34610c03576020366003190112610c03576040610c51600435611f62565b82519182526020820152f35b34610c03576040366003190112610c0357610c76611378565b602435906387a211a2600c52335f526020600c208054808411610c075783900390555f526020600c20818154019055602052600c5160601c335f516020612a995f395f51905f52602080a3602060405160018152f35b34610c03575f366003190112610c035760206001600160601b03600f5416604051908152f35b611330565b6040366003190112610c03576040610d0d61138e565b610d26610d1b600435611f62565b9190928280856118b6565b5082519182526020820152f35b34610c03575f366003190112610c03575f546040516001600160a01b039091168152602090f35b34610c03575f366003190112610c03576006546040516001600160a01b039091168152602090f35b34610c03576020366003190112610c0357610d9b611378565b6338377508600c525f52602080600c2054604051908152f35b34610c03575f366003190112610c035761016060075460018060a01b03600854166009546001600160601b0360018060a01b03600a5416600b54600c5491600d5494600e5496856040519963ffffffff81168b5260201c1660208a015260408901526060880152608087015260a086015263ffffffff811660c0860152818160201c1660e086015260801c16610100840152610120830152610140820152f35b34610c03576040366003190112610c035760206101a1610e72611fc9565b9050602435600435612118565b34610c03575f366003190112610c035761001861160a565b34610c03576020366003190112610c0357610eb0611378565b6387a211a2600c525f52602080600c2054604051908152f35b34610c03575f366003190112610c0357307f000000000000000000000000000000000000000000000000000000000000000003610f2a5760206040517f360894a13ba1a3210667c828492db98dca3e2076cc3735a920a3ca505d382bbc8152f35b639f03a0265f526004601cfd5b6040366003190112610c0357610f4b611378565b6024359067ffffffffffffffff8211610c035736602383011215610c035781600401359067ffffffffffffffff8211610c03573660248385010111610c0357307f000000000000000000000000000000000000000000000000000000000000000014610f2a57610fb961222f565b60018060a01b03163d5f526352d1902d6001527f360894a13ba1a3210667c828492db98dca3e2076cc3735a920a3ca505d382bbc602060016004601d855afa510361106d57807fbc7cd75a20ee27fd9adebab32041f755214dbc6bffa90cc0225b39da2e5c2d3b5f80a281817f360894a13ba1a3210667c828492db98dca3e2076cc3735a920a3ca505d382bbc5561104d57005b815f926024604051950185378338925af41561106557005b3d5f823e3d90fd5b6355299b496001526004601dfd5b34610c03575f366003190112610c0357602060a061109761152d565b828151910120604051907f8b73c3c69bb8fe3d512ecc4cf759cc79239f7b179b0ffacaa9a75d522b39400f8252838201527fc89efdaa54c0f20c7adf612882df0950f5a951637e0307cdcb4c672f298b8bc6604082015246606082015230608082015220604051908152f35b34610c03575f366003190112610c0357602060405160128152f35b34610c03575f366003190112610c03576003546040516001600160a01b039091168152602090f35b34610c03576060366003190112610c035761115f611378565b61116761138e565b604435908260601b6e22d473030f116ddee9f6b43ac78ba333036111de575b6387a211a217600c526020600c208054808411610c075783900390555f526020600c20818154019055602052600c5160601c9060018060a01b03165f516020612a995f395f51905f52602080a3602060405160018152f35b33602052637f5e9f208117600c526034600c20908154918219611204575b509050611186565b82851161121b57846387a211a293039055856111fc565b6313be252b5f526004601cfd5b34610c03575f366003190112610c035760206805345cdf77eb68f44c54604051908152f35b34610c03576020366003190112610c0357604061126b600435612363565b50505082519182526020820152f35b34610c03576040366003190112610c0357611293611378565b602435906001600160a01b0381166e22d473030f116ddee9f6b43ac78ba318821915171561130957602052637f5e9f20600c52335f52806034600c20555f52602c5160601c337f8c5be1e5ebec7d5bd14f71427d1e84f3dd0314c0f7b2291e5b200ac8c7c3b92560205fa3602060405160018152f35b633f68539a5f526004601cfd5b34610c03575f366003190112610c03576040610c51611406565b34610c03575f366003190112610c03576020604061134c61152d565b815192839181835280519182918282860152018484015e5f828201840152601f01601f19168101030190f35b600435906001600160a01b0382168203610c0357565b602435906001600160a01b0382168203610c0357565b604435906001600160a01b0382168203610c0357565b606435906001600160a01b0382168203610c0357565b90601f8019910116810190811067ffffffffffffffff8211176113f257604052565b634e487b7160e01b5f52604160045260245ffd5b60055460015460405163d4fac45d60e01b81523060048201526001600160a01b039182166024820152929116602083604481845afa928315610bf8575f936114c0575b5060035460405163d4fac45d60e01b81523060048201526001600160a01b0390911660248201529290602090849060449082905afa928315610bf8575f9361149057509190565b9092506020813d6020116114b8575b816114ac602093836113d0565b81010312610c03575190565b3d915061149f565b92506020833d6020116114ed575b816114db602093836113d0565b81010312610c03579151916020611449565b3d91506114ce565b90600182811c92168015611523575b602083101461150f57565b634e487b7160e01b5f52602260045260245ffd5b91607f1691611504565b604051905f8260105491611540836114f5565b80835292600181169081156115b25750600114611566575b611564925003836113d0565b565b5060105f90815290915f516020612ad95f395f51905f525b81831061159657505090602061156492820101611558565b602091935080600191548385890101520191019091849261157e565b6020925061156494915060ff191682840152151560051b820101611558565b519063ffffffff82168203610c0357565b51906001600160601b0382168203610c0357565b51906001600160a01b0382168203610c0357565b600654604051632432509f60e21b81529061016090829060049082906001600160a01b03165afa8015610bf8575f905f925f915f915f915f915f5f915f935f915f91611709575b5090640100000000600160801b039291600e55600d5563ffffffff600c549116936001600160601b0360801b9060801b169063ffffffff60e01b16179160201b161717600c55600b5560018060a01b03166001600160601b0360a01b600a541617600a5560095560018060a01b03166001600160601b0360a01b6008541617600855640100000000600160801b0363ffffffff60075492169260201b16906fffffffffffffffffffffffffffffffff19161717600755565b9a5050505050505050505050610160813d82116117c4575b8161172f61016093836113d0565b81010312610c0357611740816115d1565b9061174d602082016115e2565b9061175a604082016115f6565b9260608201519161176d608082016115f6565b9160a08201519161178060c082016115d1565b91640100000000600160801b0361179960e084016115e2565b6117a661010085016115e2565b9261014061012086015195015190999a989796959193949192611651565b3d9150611721565b90816020910312610c03575160ff81168103610c035790565b604051906117f46040836113d0565b600382526226a7a760e91b6020830152565b602081830312610c035780519067ffffffffffffffff8211610c03570181601f82011215610c035780519067ffffffffffffffff82116113f25760405192611858601f8401601f1916602001856113d0565b82845260208383010111610c0357815f9260208093018386015e8301015290565b906001600160a01b0381166e22d473030f116ddee9f6b43ac78ba3146118af57602052637f5e9f20600c525f526034600c205490565b50505f1990565b5f94939192916118c4612157565b6001546001600160a01b031615808015611f10575b15611f085715611f0257815b3410155b15611ef35783916118f8611fc9565b6805345cdf77eb68f44c549194909115611d78575061193f61192e61191d8385612818565b611928600b54611f23565b90611f31565b611939600954611f23565b90611f44565b958611611d6957611951818784612118565b959361195d8785612887565b8615611d5a576119708361197592611fbc565b6128da565b919060018060a01b0360065416906001600160601b03600f5416612710018061271011611d46576127108402908482046127101485151715611d46576119c26119c7928260011c90611fbc565b611f44565b90823b15610c03575f6001600160601b039360a493829686604051998a9889976327688f0f60e01b8952166004880152166024860152604485015260648401528160848401525af18015610bf857611d31575b506001546003546001600160a01b0390811692911680159089908215611cb3576005546001600160a01b0316803b1561093157604051638340f54960e01b81523060048201526001600160a01b039290921660248301526044820185905282908290606490829088905af1801561084b57611c9e575b50505b8215908115611bec576005548a906001600160a01b0316803b15611be857604051638340f54960e01b81523060048201526001600160a01b03969096166024870152604486018890528190869060649082908b905af1948515611bdb578795611bba575b505093611b67917f51b403c6efd91871c21df6b993560fc987985297d57a4eafbacca48d0f73009b955b15611ba05750611b318334612250565b80611b90575b506040805193845260208401949094529282018790526001600160a01b0390921660608201529081906080820190565b0390a110611b8157915f516020612ab95f395f51905f525d565b63a725e26b60e01b8352600483fd5b611b9a90336129b6565b5f611b37565b15611bb457611baf8434612250565b611b31565b89611b31565b819293955090611bc9916113d0565b611bd757918492895f611af7565b8880fd5b50604051903d90823e3d90fd5b5080fd5b611bf886303387612a3a565b6005548a906001600160a01b0316803b15611be857604051638340f54960e01b81523060048201526001600160a01b039690961660248701526044860188905281908690606490829084905af1948515611bdb578795611c81575b505093611b67917f51b403c6efd91871c21df6b993560fc987985297d57a4eafbacca48d0f73009b95611b21565b819293955090611c90916113d0565b611bd757918492895f611c53565b81611ca8916113d0565b611bd757885f611a90565b611cbf84303384612a3a565b6005546001600160a01b0316803b1561093157604051638340f54960e01b81523060048201526001600160a01b039290921660248301526044820185905282908290606490829084905af1801561084b57611d1c575b5050611a93565b81611d26916113d0565b611bd757885f611d15565b611d3e9197505f906113d0565b5f955f611a1a565b634e487b7160e01b5f52601160045260245ffd5b633489be7560e21b5f5260045ffd5b635cc39c2360e11b5f5260045ffd5b939050611d858683611f31565b8070ffffffffffffffffffffffffffffffffff1060071b81811c68ffffffffffffffffff1060061b1781811c64ffffffffff1060051b1781811c62ffffff1060041b1760b56201000083831c019160011c1b0260121c8082040160011c8082040160011c8082040160011c8082040160011c8082040160011c8082040160011c8082040160011c808092041090039560018060a01b03600554166805345cdf77eb68f44c546103e88101908110611ee6576805345cdf77eb68f44c556387a211a2600c525f526020600c206103e881540190556103e8602052600c5160601c5f5f516020612a995f395f51905f52602080a36103e7198701968711611d4657611e9d90611e928886612887565b611928600954611f23565b670de0b6b3a7640000810290808204670de0b6b3a76400001490151715611d4657826119c2611ed192611939600b54611f23565b908161195d5763098de0cd60e41b5f5260045ffd5b63e5cfe9575f526004601cfd5b63cd41a9e360e01b5f5260045ffd5b836118e5565b5034156118e9565b506003546001600160a01b0316156118d9565b604d8111611d4657600a0a90565b81810292918115918404141715611d4657565b8115611f4e570490565b634e487b7160e01b5f52601260045260245ffd5b6805345cdf77eb68f44c54908115611fb45761192e61191d611faa611fa39594611fb194611f8e611406565b611f99999199611fc9565b9a8b929150612741565b50906127f5565b9485612818565b90565b50505f905f90565b91908201809211611d4657565b600654604051632889856360e11b81529190602090839060049082906001600160a01b03165afa918215610bf8575f926120dc575b506001600160601b03600f54169182614e20019081614e2011611d4657600493612039926001600160601b036120349316612846565b612864565b6006546040516311d2e12360e21b81529360209185919082906001600160a01b03165afa928315610bf8575f936120a6575b5061208d6120a2916001600160601b03612086600954611f23565b9116611f31565b6001600160601b0360075460201c1690611f44565b9190565b9092506020813d6020116120d4575b816120c2602093836113d0565b81010312610c0357519161208d61206b565b3d91506120b5565b9091506020813d602011612110575b816120f8602093836113d0565b81010312610c0357612109906115e2565b905f611ffe565b3d91506120eb565b6121469061213261214c939461212c611406565b90612741565b92906805345cdf77eb68f44c5480936127f5565b936127f5565b818110908218021890565b5f516020612ab95f395f51905f525c61217d5760015f516020612ab95f395f51905f525d565b633ee5aeb560e01b5f5260045ffd5b906001600160a01b0381166e22d473030f116ddee9f6b43ac78ba3146121d857602052637f5e9f20600c525f526034600c2090815480196121cc57505050565b80821161121b57039055565b505050565b906014525f1960345263095ea7b360601b5f5260205f6044601082855af1908160015f51141615612211575b50505f603452565b3b153d171015612222575f80612209565b633e3f8f735f526004601cfd5b5f546001600160a01b0316330361224257565b6282b42960e81b5f5260045ffd5b91908203918211611d4657565b60405190610160820182811067ffffffffffffffff8211176113f257604052816001600160601b0360075463ffffffff8116835260201c16602082015260018060a01b03600854166040820152600954606082015260018060a01b03600a54166080820152600b5460a08201526001600160601b03600c5463ffffffff811660c0840152818160201c1660e084015260801c16610100820152600d54610120820152610140600e54910152565b81810392915f138015828513169184121617611d4657565b5f8190039190600160ff1b8114600116611d46575f19830503611d4657565b81810292915f8212600160ff1b821416611d46578184051490151715611d4657565b600654604051632889856360e11b815290602090829060049082906001600160a01b03165afa908115610bf8575f91612707575b506001600160601b03600f54169081614e20019081614e2011611d46576004926123cd926001600160601b0361203493166127f5565b6006546040516311d2e12360e21b81529194919260209184919082906001600160a01b03165afa918215610bf8575f926126cf575b5061241f61208d6004956001600160601b03612086600954611f23565b91506124446119706805345cdf77eb68f44c549361243e8582886127f5565b90612250565b600654604051630445da7b60e51b81529692959194926101009188919082906001600160a01b03165afa908115610bf8575f965f975f915f94612637575b506001600160601b039861249461225d565b9061249d611406565b9b909616906001600160601b038b16821080159061261b575b156125f9576001600160601b0316916124e56124d2848461230a565b6124df6060840151611f23565b90612341565b9460208201956001600160601b03875116908115611f4e57600160ff1b81145f19831416611d46578a9761254b612559966124df956001600160601b03612542670de0b6b3a76400009b60a09861255198059d8388511691612846565b945116916127f5565b9061230a565b920151611f23565b05935f8212156125dc5761258061258c9361257a6125869361243e86612322565b866127f5565b91612322565b90611fbc565b965b5f8312156125bf576125b493612586926125ae6125809361243e87612322565b906127f5565b935b93929190600190565b926125d1916125ae846125d696611fbc565b612250565b936125b6565b6125f3926125ed836125d193611fbc565b856127f5565b9661258e565b50505050509561260e836126149493896127f5565b966127f5565b9291905f90565b506001600160601b038a166001600160601b03821610156124b6565b935050509550610100813d82116126c7575b8161265761010093836113d0565b81010312610c03576001600160601b0395612671826115f6565b50602082015191612684604082016115e2565b6060820151936126bc60e061269b608086016115e2565b946126a860a082016115e2565b506126b560c082016115e2565b50016115e2565b509093919398612482565b3d9150612649565b9391506020843d6020116126ff575b816126eb602093836113d0565b81010312610c03579251909261241f612402565b3d91506126de565b90506020813d602011612739575b81612722602093836113d0565b81010312610c0357612733906115e2565b5f612397565b3d9150612715565b929190926127578261275161225d565b92611f31565b90606061276c60a08301936119288551611f23565b9101946127798651611f23565b91670de0b6b3a7640000830292808404670de0b6b3a76400001490151715611d46576127ad926127a891611f44565b611fbc565b60011c93670de0b6b3a7640000850292858404670de0b6b3a76400001486151715611d46576127f06127e96120a2956119286119399551611f23565b9351611f23565b611f31565b818102918115918304141782021561280b570490565b63ad251c275f526004601cfd5b8181029181159183041417670de0b6b3a7640000021561280b57670de0b6b3a7640000808204910615150190565b81810292918115918404141781021561280b57808204910615150190565b906001600160601b03821691820361287857565b637119f00960e11b5f5260045ffd5b6805345cdf77eb68f44c54828101908110611ee6576805345cdf77eb68f44c556387a211a2600c525f526020600c20818154019055602052600c5160601c5f5f516020612a995f395f51905f52602080a3565b906128e361225d565b916001600160601b03600f5416926128fb8285611f31565b9161291560208301936001600160601b0385511690611f31565b9285614e20019384614e2011611d465761295661295f936129506120346001600160601b039461193960606129669a019a6119288c51611f23565b98611f31565b91511690611f31565b9151611f23565b9081614e200291614e20830403611d46576129849161203491611f44565b916001600160601b038116156129a7576001600160601b038316156129a7579190565b63e9ab1f0b60e01b5f5260045ffd5b5f80809338935af1156129c557565b63b12d13eb5f526004601cfd5b90916001600160a01b0383166129ec5761156492506129b6565b60145260345263a9059cbb60601b5f5260205f6044601082855af1908160015f51141615612a1c5750505f603452565b3b153d171015612a2d575f80612209565b6390b8ec185f526004601cfd5b916040519360605260405260601b602c526323b872dd60601b600c5260205f6064601c82855af1908160015f51141615612a7a575b50505f606052604052565b3b153d171015612a8b575f80612a6f565b637939f4245f526004601cfdfeddf252ad1be2c89b69c2b068fc378daa952ba7f163c4a11628f55a4df523b3ef9b779b17422d0df92223018b32b4d1fa46e071723d6817e2486d003becc55f001b6847dc741a1b0cd08d278845f9d819d87b734759afb55fe2de5cb82a9ae672a26469706673582212206d9e426796f969f95fd7f3c6bde51669e9e9ede6f7b7657a48ffe58e2a57ae0a64736f6c634300081e0033",
        "linkReferences": {}
    },
    "methodIdentifiers": {
        "DOMAIN_SEPARATOR()": "3644e515",
        "SPREAD_CONSTANT()": "a68ee881",
        "allowance(address,address)": "dd62ed3e",
        "approve(address,uint256)": "095ea7b3",
        "balanceOf(address)": "70a08231",
        "decimals()": "313ce567",
        "deposit(uint256,uint256,uint256,address)": "fad3cc4b",
        "initialize(address,address,address,address,address,uint96)": "d246ce16",
        "marginAccount()": "f742269d",
        "market()": "80f55605",
        "marketParams()": "7b9e68f2",
        "mint(uint256,address)": "94bf804d",
        "name()": "06fdde03",
        "nonces(address)": "7ecebe00",
        "owner()": "8da5cb5b",
        "permit(address,address,uint256,uint256,uint8,bytes32,bytes32)": "d505accf",
        "previewDeposit(uint256,uint256)": "7a7af70d",
        "previewMint(uint256)": "b3d7f6b9",
        "previewWithdraw(uint256)": "0a28a477",
        "proxiableUUID()": "52d1902d",
        "setMarketParams()": "7660b153",
        "symbol()": "95d89b41",
        "token1()": "d21220a7",
        "token2()": "25be124e",
        "totalAssets()": "01e1d114",
        "totalSupply()": "18160ddd",
        "transfer(address,uint256)": "a9059cbb",
        "transferFrom(address,address,uint256)": "23b872dd",
        "transferOwnership(address)": "f2fde38b",
        "upgradeToAndCall(address,bytes)": "4f1ef286",
        "withdraw(uint256,address,address)": "b460af94"
    },
    "id": 1
}